{"contracts/PredictionMarket.sol":{"PredictionMarket":{"abi":[{"inputs":[{"internalType":"contract IERC20","name":"_stakingToken","type":"address"},{"internalType":"address","name":"_feeRecipient","type":"address"},{"internalType":"uint16","name":"_platformFeeBps","type":"uint16"}],"stateMutability":"nonpayable","type":"constructor"},{"inputs":[{"internalType":"address","name":"owner","type":"address"}],"name":"OwnableInvalidOwner","type":"error"},{"inputs":[{"internalType":"address","name":"account","type":"address"}],"name":"OwnableUnauthorizedAccount","type":"error"},{"anonymous":false,"inputs":[{"indexed":true,"internalType":"bytes32","name":"id","type":"bytes32"},{"indexed":false,"internalType":"string","name":"teamA","type":"string"},{"indexed":false,"internalType":"string","name":"teamB","type":"string"},{"indexed":false,"internalType":"uint64","name":"startTime","type":"uint64"}],"name":"MatchCreated","type":"event"},{"anonymous":false,"inputs":[{"indexed":true,"internalType":"bytes32","name":"id","type":"bytes32"},{"indexed":false,"internalType":"enum PredictionMarket.Outcome","name":"result","type":"uint8"}],"name":"MatchResolved","type":"event"},{"anonymous":false,"inputs":[{"indexed":true,"internalType":"address","name":"previousOwner","type":"address"},{"indexed":true,"internalType":"address","name":"newOwner","type":"address"}],"name":"OwnershipTransferred","type":"event"},{"anonymous":false,"inputs":[{"indexed":true,"internalType":"bytes32","name":"id","type":"bytes32"},{"indexed":false,"internalType":"uint256","name":"totalDistributed","type":"uint256"},{"indexed":false,"internalType":"enum PredictionMarket.Outcome","name":"winner","type":"uint8"}],"name":"RewardsDistributed","type":"event"},{"anonymous":false,"inputs":[{"indexed":true,"internalType":"bytes32","name":"id","type":"bytes32"},{"indexed":true,"internalType":"address","name":"user","type":"address"},{"indexed":false,"internalType":"enum PredictionMarket.Outcome","name":"outcome","type":"uint8"},{"indexed":false,"internalType":"uint256","name":"amount","type":"uint256"}],"name":"Staked","type":"event"},{"inputs":[{"internalType":"bytes32","name":"id","type":"bytes32"}],"name":"claimReward","outputs":[],"stateMutability":"nonpayable","type":"function"},{"inputs":[{"internalType":"bytes32","name":"","type":"bytes32"},{"internalType":"address","name":"","type":"address"}],"name":"claimed","outputs":[{"internalType":"bool","name":"","type":"bool"}],"stateMutability":"view","type":"function"},{"inputs":[{"internalType":"bytes32","name":"id","type":"bytes32"},{"internalType":"string","name":"teamA_","type":"string"},{"internalType":"string","name":"teamB_","type":"string"},{"internalType":"uint64","name":"startTime","type":"uint64"}],"name":"createMatch","outputs":[],"stateMutability":"nonpayable","type":"function"},{"inputs":[{"internalType":"bytes32","name":"id","type":"bytes32"}],"name":"distributeRewards","outputs":[],"stateMutability":"nonpayable","type":"function"},{"inputs":[],"name":"feeRecipient","outputs":[{"internalType":"address","name":"","type":"address"}],"stateMutability":"view","type":"function"},{"inputs":[{"internalType":"bytes32","name":"","type":"bytes32"}],"name":"matchesById","outputs":[{"internalType":"string","name":"teamA","type":"string"},{"internalType":"string","name":"teamB","type":"string"},{"internalType":"uint64","name":"startTime","type":"uint64"},{"internalType":"uint64","name":"endTime","type":"uint64"},{"internalType":"bool","name":"resolved","type":"bool"},{"internalType":"enum PredictionMarket.Outcome","name":"result","type":"uint8"},{"internalType":"uint256","name":"totalPool","type":"uint256"},{"internalType":"uint256","name":"poolA","type":"uint256"},{"internalType":"uint256","name":"poolB","type":"uint256"}],"stateMutability":"view","type":"function"},{"inputs":[],"name":"owner","outputs":[{"internalType":"address","name":"","type":"address"}],"stateMutability":"view","type":"function"},{"inputs":[],"name":"platformFeeBps","outputs":[{"internalType":"uint16","name":"","type":"uint16"}],"stateMutability":"view","type":"function"},{"inputs":[],"name":"renounceOwnership","outputs":[],"stateMutability":"nonpayable","type":"function"},{"inputs":[{"internalType":"bytes32","name":"id","type":"bytes32"},{"internalType":"enum PredictionMarket.Outcome","name":"result","type":"uint8"},{"internalType":"uint64","name":"endTime","type":"uint64"}],"name":"resolveMatch","outputs":[],"stateMutability":"nonpayable","type":"function"},{"inputs":[{"internalType":"address","name":"_recipient","type":"address"}],"name":"setFeeRecipient","outputs":[],"stateMutability":"nonpayable","type":"function"},{"inputs":[{"internalType":"uint16","name":"_bps","type":"uint16"}],"name":"setPlatformFeeBps","outputs":[],"stateMutability":"nonpayable","type":"function"},{"inputs":[{"internalType":"bytes32","name":"id","type":"bytes32"},{"internalType":"enum PredictionMarket.Outcome","name":"outcome","type":"uint8"},{"internalType":"uint256","name":"amount","type":"uint256"}],"name":"stake","outputs":[],"stateMutability":"nonpayable","type":"function"},{"inputs":[{"internalType":"bytes32","name":"","type":"bytes32"},{"internalType":"address","name":"","type":"address"}],"name":"stakeA","outputs":[{"internalType":"uint256","name":"","type":"uint256"}],"stateMutability":"view","type":"function"},{"inputs":[{"internalType":"bytes32","name":"","type":"bytes32"},{"internalType":"address","name":"","type":"address"}],"name":"stakeB","outputs":[{"internalType":"uint256","name":"","type":"uint256"}],"stateMutability":"view","type":"function"},{"inputs":[],"name":"stakingToken","outputs":[{"internalType":"contract IERC20","name":"","type":"address"}],"stateMutability":"view","type":"function"},{"inputs":[{"internalType":"address","name":"newOwner","type":"address"}],"name":"transferOwnership","outputs":[],"stateMutability":"nonpayable","type":"function"}],"evm":{"bytecode":{"linkReferences":{},"object":"60a06040523480156200001157600080fd5b5060405162001ba138038062001ba18339810160408190526200003491620001d5565b33806200005c57604051631e4fbdf760e01b8152600060048201526024015b60405180910390fd5b62000067816200016c565b506001600160a01b038316620000a85760405162461bcd60e51b81526020600482015260056024820152643a37b5b2b760d91b604482015260640162000053565b6001600160a01b038216620000ef5760405162461bcd60e51b815260206004820152600c60248201526b199959549958da5c1a595b9d60a21b604482015260640162000053565b6127108161ffff161115620001315760405162461bcd60e51b81526020600482015260076024820152666665652062707360c81b604482015260640162000053565b6001600160a01b039283166080526001805461ffff909216600160a01b026001600160b01b031990921692909316919091171790556200022f565b600080546001600160a01b038381166001600160a01b0319831681178455604051919092169283917f8be0079c531659141344cd1fd0a4f28419497f9722a3daafe3b4186f6b6457e09190a35050565b6001600160a01b0381168114620001d257600080fd5b50565b600080600060608486031215620001eb57600080fd5b8351620001f881620001bc565b60208501519093506200020b81620001bc565b604085015190925061ffff811681146200022457600080fd5b809150509250925092565b60805161194162000260600039600081816101d60152818161090c01528181610c2301526110d401526119416000f3fe608060405234801561001057600080fd5b506004361061010b5760003560e01c80638c394951116100a2578063dfcae62211610071578063dfcae6221461026d578063e74b981b146102ab578063f2fde38b146102be578063f5414023146102d1578063fd59ebce146102e457600080fd5b80638c394951146102235780638da5cb5b146102365780639e44686f14610247578063c393fd321461025a57600080fd5b806346904840116100de578063469048401461019e578063715018a6146101c957806372f702f3146101d15780638988bcc2146101f857600080fd5b80630dd8acf1146101105780630e8ac2881461012557806322dcd13e146101635780633bc1f7b31461018b575b600080fd5b61012361011e36600461139f565b61030c565b005b6101506101333660046113f2565b600360209081526000928352604080842090915290825290205481565b6040519081526020015b60405180910390f35b60015461017890600160a01b900461ffff1681565b60405161ffff909116815260200161015a565b61012361019936600461141e565b6104eb565b6001546101b1906001600160a01b031681565b6040516001600160a01b03909116815260200161015a565b610123610551565b6101b17f000000000000000000000000000000000000000000000000000000000000000081565b6101506102063660046113f2565b600460209081526000928352604080842090915290825290205481565b610123610231366004611491565b610565565b6000546001600160a01b03166101b1565b610123610255366004611519565b6107a5565b61012361026836600461154e565b610acb565b61029b61027b3660046113f2565b600560209081526000928352604080842090915290825290205460ff1681565b604051901515815260200161015a565b6101236102b9366004611567565b610d7b565b6101236102cc366004611567565b610de4565b6101236102df36600461154e565b610e22565b6102f76102f236600461154e565b611187565b60405161015a99989796959493929190611600565b6103146112f7565b6001826003811115610328576103286115c8565b148061034557506002826003811115610343576103436115c8565b145b806103615750600382600381111561035f5761035f6115c8565b145b61039f5760405162461bcd60e51b815260206004820152600a602482015269189859081c995cdd5b1d60b21b60448201526064015b60405180910390fd5b600083815260026020819052604082209081015490916001600160401b0390911690036103f95760405162461bcd60e51b81526020600482015260086024820152670dcde40dac2e8c6d60c31b6044820152606401610396565b6002810154600160801b900460ff16156104405760405162461bcd60e51b81526020600482015260086024820152671c995cdbdb1d995960c21b6044820152606401610396565b600281018054600160801b60ff60801b1982168117835585929161ffff60801b191617600160881b83600381111561047a5761047a6115c8565b02179055506002810180546fffffffffffffffff00000000000000001916600160401b6001600160401b0385160217905560405184907fea8ea0d25c20e9a805057bc82c595929a741d114709f74e467893892d14ba66d906104dd908690611679565b60405180910390a250505050565b6104f36112f7565b6127108161ffff16111561052f5760405162461bcd60e51b815260206004820152600360248201526262707360e81b6044820152606401610396565b6001805461ffff909216600160a01b0261ffff60a01b19909216919091179055565b6105596112f7565b6105636000611324565b565b61056d6112f7565b600086815260026020819052604090912001546001600160401b0316156105bf5760405162461bcd60e51b815260206004820152600660248201526565786973747360d01b6044820152606401610396565b60405180610120016040528086868080601f016020809104026020016040519081016040528093929190818152602001838380828437600092019190915250505090825250604080516020601f87018190048102820181019092528581529181019190869086908190840183828082843760009201829052509385525050506001600160401b0384166020830152604082018190526060820181905260809091019081526000602080830182905260408084018390526060909301829052898252600290522081518190610693908261172e565b50602082015160018201906106a8908261172e565b506040820151600282018054606085015160808601511515600160801b0260ff60801b196001600160401b03928316600160401b026fffffffffffffffffffffffffffffffff199094169290951691909117919091179283168117825560a08501519260ff60881b1990911661ffff60801b1990911617600160881b836003811115610736576107366115c8565b021790555060c0820151816003015560e082015181600401556101008201518160050155905050857f5a5a8f5ae9b89a0acf2c06c95d702fd5561642f6ab6e033608c990894d38fd4b8686868686604051610795959493929190611816565b60405180910390a2505050505050565b60018260038111156107b9576107b96115c8565b14806107d6575060028260038111156107d4576107d46115c8565b145b6108105760405162461bcd60e51b815260206004820152600b60248201526a626164206f7574636f6d6560a81b6044820152606401610396565b600083815260026020819052604082209081015490916001600160401b03909116900361086a5760405162461bcd60e51b81526020600482015260086024820152670dcde40dac2e8c6d60c31b6044820152606401610396565b6002810154600160801b900460ff16156108b15760405162461bcd60e51b81526020600482015260086024820152671c995cdbdb1d995960c21b6044820152606401610396565b600082116108ea5760405162461bcd60e51b8152602060048201526006602482015265185b5bdd5b9d60d21b6044820152606401610396565b6040516323b872dd60e01b8152336004820152306024820152604481018390527f00000000000000000000000000000000000000000000000000000000000000006001600160a01b0316906323b872dd906064016020604051808303816000875af115801561095d573d6000803e3d6000fd5b505050506040513d601f19601f820116820180604052508101906109819190611859565b6109bc5760405162461bcd60e51b815260206004820152600c60248201526b7472616e7366657246726f6d60a01b6044820152606401610396565b60018360038111156109d0576109d06115c8565b03610a24576000848152600360209081526040808320338452909152812080548492906109fe908490611891565b9250508190555081816004016000828254610a199190611891565b90915550610a6e9050565b600084815260046020908152604080832033845290915281208054849290610a4d908490611891565b9250508190555081816005016000828254610a689190611891565b90915550505b81816003016000828254610a829190611891565b9091555050604051339085907fe2777f8436017a241f6be88daadba51bc0f4d204fea0c1417a9b26624ae28e7290610abd90879087906118a4565b60405180910390a350505050565b600081815260026020819052604090912090810154600160801b900460ff16610b255760405162461bcd60e51b815260206004820152600c60248201526b1b9bdd081c995cdbdb1d995960a21b6044820152606401610396565b60016002820154600160881b900460ff166003811115610b4757610b476115c8565b1480610b715750600280820154600160881b900460ff166003811115610b6f57610b6f6115c8565b145b610bb05760405162461bcd60e51b815260206004820152601060248201526f191c985dc81d5b9cdd5c1c1bdc9d195960821b6044820152606401610396565b600154600382015460009161271091610bd491600160a01b900461ffff16906118bf565b610bde91906118d6565b90506000818360030154610bf291906118f8565b90508115610cc95760015460405163a9059cbb60e01b81526001600160a01b039182166004820152602481018490527f00000000000000000000000000000000000000000000000000000000000000009091169063a9059cbb906044016020604051808303816000875af1158015610c6e573d6000803e3d6000fd5b505050506040513d601f19601f82011682018060405250810190610c929190611859565b610cc95760405162461bcd60e51b81526020600482015260086024820152673332b2903c3332b960c11b6044820152606401610396565b600060016002850154600160881b900460ff166003811115610ced57610ced6115c8565b14610cfc578360050154610d02565b83600401545b905060008111610d415760405162461bcd60e51b815260206004820152600a6024820152696e6f2077696e6e65727360b01b6044820152606401610396565b60405162461bcd60e51b815260206004820152600f60248201526e155cd94818db185a5b54995dd85c99608a1b6044820152606401610396565b610d836112f7565b6001600160a01b038116610dc25760405162461bcd60e51b8152600401610396906020808252600490820152637a65726f60e01b604082015260600190565b600180546001600160a01b0319166001600160a01b0392909216919091179055565b610dec6112f7565b6001600160a01b038116610e1657604051631e4fbdf760e01b815260006004820152602401610396565b610e1f81611324565b50565b600081815260026020819052604090912090810154600160801b900460ff16610e7c5760405162461bcd60e51b815260206004820152600c60248201526b1b9bdd081c995cdbdb1d995960a21b6044820152606401610396565b60016002820154600160881b900460ff166003811115610e9e57610e9e6115c8565b1480610ec85750600280820154600160881b900460ff166003811115610ec657610ec66115c8565b145b610f075760405162461bcd60e51b815260206004820152601060248201526f191c985dc81d5b9cdd5c1c1bdc9d195960821b6044820152606401610396565b600082815260056020908152604080832033845290915290205460ff1615610f5b5760405162461bcd60e51b815260206004820152600760248201526618db185a5b595960ca1b6044820152606401610396565b600060016002830154600160881b900460ff166003811115610f7f57610f7f6115c8565b14610fa3576000838152600460209081526040808320338452909152902054610fbe565b60008381526003602090815260408083203384529091529020545b905060008111610ffb5760405162461bcd60e51b81526020600482015260086024820152676e6f207374616b6560c01b6044820152606401610396565b600083815260056020908152604080832033845290915281208054600160ff1990911681179091555460038401546127109161104391600160a01b90910461ffff16906118bf565b61104d91906118d6565b9050600081846003015461106191906118f8565b9050600060016002860154600160881b900460ff166003811115611087576110876115c8565b1461109657846005015461109c565b84600401545b90506000816110ab84876118bf565b6110b591906118d6565b60405163a9059cbb60e01b8152336004820152602481018290529091507f00000000000000000000000000000000000000000000000000000000000000006001600160a01b03169063a9059cbb906044016020604051808303816000875af1158015611125573d6000803e3d6000fd5b505050506040513d601f19601f820116820180604052508101906111499190611859565b61117e5760405162461bcd60e51b8152600401610396906020808252600490820152633c3332b960e11b604082015260600190565b50505050505050565b6002602052600090815260409020805481906111a2906116a3565b80601f01602080910402602001604051908101604052809291908181526020018280546111ce906116a3565b801561121b5780601f106111f05761010080835404028352916020019161121b565b820191906000526020600020905b8154815290600101906020018083116111fe57829003601f168201915b505050505090806001018054611230906116a3565b80601f016020809104026020016040519081016040528092919081815260200182805461125c906116a3565b80156112a95780601f1061127e576101008083540402835291602001916112a9565b820191906000526020600020905b81548152906001019060200180831161128c57829003601f168201915b50505060028401546003850154600486015460059096015494956001600160401b0380841696600160401b8504909116955060ff600160801b850481169550600160881b9094049093169289565b6000546001600160a01b031633146105635760405163118cdaa760e01b8152336004820152602401610396565b600080546001600160a01b038381166001600160a01b0319831681178455604051919092169283917f8be0079c531659141344cd1fd0a4f28419497f9722a3daafe3b4186f6b6457e09190a35050565b80356004811061138357600080fd5b919050565b80356001600160401b038116811461138357600080fd5b6000806000606084860312156113b457600080fd5b833592506113c460208501611374565b91506113d260408501611388565b90509250925092565b80356001600160a01b038116811461138357600080fd5b6000806040838503121561140557600080fd5b82359150611415602084016113db565b90509250929050565b60006020828403121561143057600080fd5b813561ffff8116811461144257600080fd5b9392505050565b60008083601f84011261145b57600080fd5b5081356001600160401b0381111561147257600080fd5b60208301915083602082850101111561148a57600080fd5b9250929050565b600080600080600080608087890312156114aa57600080fd5b8635955060208701356001600160401b03808211156114c857600080fd5b6114d48a838b01611449565b909750955060408901359150808211156114ed57600080fd5b506114fa89828a01611449565b909450925061150d905060608801611388565b90509295509295509295565b60008060006060848603121561152e57600080fd5b8335925061153e60208501611374565b9150604084013590509250925092565b60006020828403121561156057600080fd5b5035919050565b60006020828403121561157957600080fd5b611442826113db565b6000815180845260005b818110156115a85760208185018101518683018201520161158c565b506000602082860101526020601f19601f83011685010191505092915050565b634e487b7160e01b600052602160045260246000fd5b600481106115fc57634e487b7160e01b600052602160045260246000fd5b9052565b60006101208083526116148184018d611582565b90508281036020840152611628818c611582565b6001600160401b038b811660408601528a16606085015288151560808501529150611658905060a08301876115de565b8460c08301528360e0830152826101008301529a9950505050505050505050565b6020810161168782846115de565b92915050565b634e487b7160e01b600052604160045260246000fd5b600181811c908216806116b757607f821691505b6020821081036116d757634e487b7160e01b600052602260045260246000fd5b50919050565b601f821115611729576000816000526020600020601f850160051c810160208610156117065750805b601f850160051c820191505b8181101561172557828155600101611712565b5050505b505050565b81516001600160401b038111156117475761174761168d565b61175b8161175584546116a3565b846116dd565b602080601f83116001811461179057600084156117785750858301515b600019600386901b1c1916600185901b178555611725565b600085815260208120601f198616915b828110156117bf578886015182559484019460019091019084016117a0565b50858210156117dd5787850151600019600388901b60f8161c191681555b5050505050600190811b01905550565b81835281816020850137506000828201602090810191909152601f909101601f19169091010190565b60608152600061182a6060830187896117ed565b828103602084015261183d8186886117ed565b9150506001600160401b03831660408301529695505050505050565b60006020828403121561186b57600080fd5b8151801515811461144257600080fd5b634e487b7160e01b600052601160045260246000fd5b808201808211156116875761168761187b565b604081016118b282856115de565b8260208301529392505050565b80820281158282048414176116875761168761187b565b6000826118f357634e487b7160e01b600052601260045260246000fd5b500490565b818103818111156116875761168761187b56fea2646970667358221220426769a0e715e1fbceee278c92b7586b867632b62a3546e6996166e78a9ff96c64736f6c63430008180033","opcodes":"PUSH1 0xA0 PUSH1 0x40 MSTORE CALLVALUE DUP1 ISZERO PUSH3 0x11 JUMPI PUSH1 0x0 DUP1 REVERT JUMPDEST POP PUSH1 0x40 MLOAD PUSH3 0x1BA1 CODESIZE SUB DUP1 PUSH3 0x1BA1 DUP4 CODECOPY DUP2 ADD PUSH1 0x40 DUP2 SWAP1 MSTORE PUSH3 0x34 SWAP2 PUSH3 0x1D5 JUMP JUMPDEST CALLER DUP1 PUSH3 0x5C JUMPI PUSH1 0x40 MLOAD PUSH4 0x1E4FBDF7 PUSH1 0xE0 SHL DUP2 MSTORE PUSH1 0x0 PUSH1 0x4 DUP3 ADD MSTORE PUSH1 0x24 ADD JUMPDEST PUSH1 0x40 MLOAD DUP1 SWAP2 SUB SWAP1 REVERT JUMPDEST PUSH3 0x67 DUP2 PUSH3 0x16C JUMP JUMPDEST POP PUSH1 0x1 PUSH1 0x1 PUSH1 0xA0 SHL SUB DUP4 AND PUSH3 0xA8 JUMPI PUSH1 0x40 MLOAD PUSH3 0x461BCD PUSH1 0xE5 SHL DUP2 MSTORE PUSH1 0x20 PUSH1 0x4 DUP3 ADD MSTORE PUSH1 0x5 PUSH1 0x24 DUP3 ADD MSTORE PUSH5 0x3A37B5B2B7 PUSH1 0xD9 SHL PUSH1 0x44 DUP3 ADD MSTORE PUSH1 0x64 ADD PUSH3 0x53 JUMP JUMPDEST PUSH1 0x1 PUSH1 0x1 PUSH1 0xA0 SHL SUB DUP3 AND PUSH3 0xEF JUMPI PUSH1 0x40 MLOAD PUSH3 0x461BCD PUSH1 0xE5 SHL DUP2 MSTORE PUSH1 0x20 PUSH1 0x4 DUP3 ADD MSTORE PUSH1 0xC PUSH1 0x24 DUP3 ADD MSTORE PUSH12 0x199959549958DA5C1A595B9D PUSH1 0xA2 SHL PUSH1 0x44 DUP3 ADD MSTORE PUSH1 0x64 ADD PUSH3 0x53 JUMP JUMPDEST PUSH2 0x2710 DUP2 PUSH2 0xFFFF AND GT ISZERO PUSH3 0x131 JUMPI PUSH1 0x40 MLOAD PUSH3 0x461BCD PUSH1 0xE5 SHL DUP2 MSTORE PUSH1 0x20 PUSH1 0x4 DUP3 ADD MSTORE PUSH1 0x7 PUSH1 0x24 DUP3 ADD MSTORE PUSH7 0x66656520627073 PUSH1 0xC8 SHL PUSH1 0x44 DUP3 ADD MSTORE PUSH1 0x64 ADD PUSH3 0x53 JUMP JUMPDEST PUSH1 0x1 PUSH1 0x1 PUSH1 0xA0 SHL SUB SWAP3 DUP4 AND PUSH1 0x80 MSTORE PUSH1 0x1 DUP1 SLOAD PUSH2 0xFFFF SWAP1 SWAP3 AND PUSH1 0x1 PUSH1 0xA0 SHL MUL PUSH1 0x1 PUSH1 0x1 PUSH1 0xB0 SHL SUB NOT SWAP1 SWAP3 AND SWAP3 SWAP1 SWAP4 AND SWAP2 SWAP1 SWAP2 OR OR SWAP1 SSTORE PUSH3 0x22F JUMP JUMPDEST PUSH1 0x0 DUP1 SLOAD PUSH1 0x1 PUSH1 0x1 PUSH1 0xA0 SHL SUB DUP4 DUP2 AND PUSH1 0x1 PUSH1 0x1 PUSH1 0xA0 SHL SUB NOT DUP4 AND DUP2 OR DUP5 SSTORE PUSH1 0x40 MLOAD SWAP2 SWAP1 SWAP3 AND SWAP3 DUP4 SWAP2 PUSH32 0x8BE0079C531659141344CD1FD0A4F28419497F9722A3DAAFE3B4186F6B6457E0 SWAP2 SWAP1 LOG3 POP POP JUMP JUMPDEST PUSH1 0x1 PUSH1 0x1 PUSH1 0xA0 SHL SUB DUP2 AND DUP2 EQ PUSH3 0x1D2 JUMPI PUSH1 0x0 DUP1 REVERT JUMPDEST POP JUMP JUMPDEST PUSH1 0x0 DUP1 PUSH1 0x0 PUSH1 0x60 DUP5 DUP7 SUB SLT ISZERO PUSH3 0x1EB JUMPI PUSH1 0x0 DUP1 REVERT JUMPDEST DUP4 MLOAD PUSH3 0x1F8 DUP2 PUSH3 0x1BC JUMP JUMPDEST PUSH1 0x20 DUP6 ADD MLOAD SWAP1 SWAP4 POP PUSH3 0x20B DUP2 PUSH3 0x1BC JUMP JUMPDEST PUSH1 0x40 DUP6 ADD MLOAD SWAP1 SWAP3 POP PUSH2 0xFFFF DUP2 AND DUP2 EQ PUSH3 0x224 JUMPI PUSH1 0x0 DUP1 REVERT JUMPDEST DUP1 SWAP2 POP POP SWAP3 POP SWAP3 POP SWAP3 JUMP JUMPDEST PUSH1 0x80 MLOAD PUSH2 0x1941 PUSH3 0x260 PUSH1 0x0 CODECOPY PUSH1 0x0 DUP2 DUP2 PUSH2 0x1D6 ADD MSTORE DUP2 DUP2 PUSH2 0x90C ADD MSTORE DUP2 DUP2 PUSH2 0xC23 ADD MSTORE PUSH2 0x10D4 ADD MSTORE PUSH2 0x1941 PUSH1 0x0 RETURN INVALID PUSH1 0x80 PUSH1 0x40 MSTORE CALLVALUE DUP1 ISZERO PUSH2 0x10 JUMPI PUSH1 0x0 DUP1 REVERT JUMPDEST POP PUSH1 0x4 CALLDATASIZE LT PUSH2 0x10B JUMPI PUSH1 0x0 CALLDATALOAD PUSH1 0xE0 SHR DUP1 PUSH4 0x8C394951 GT PUSH2 0xA2 JUMPI DUP1 PUSH4 0xDFCAE622 GT PUSH2 0x71 JUMPI DUP1 PUSH4 0xDFCAE622 EQ PUSH2 0x26D JUMPI DUP1 PUSH4 0xE74B981B EQ PUSH2 0x2AB JUMPI DUP1 PUSH4 0xF2FDE38B EQ PUSH2 0x2BE JUMPI DUP1 PUSH4 0xF5414023 EQ PUSH2 0x2D1 JUMPI DUP1 PUSH4 0xFD59EBCE EQ PUSH2 0x2E4 JUMPI PUSH1 0x0 DUP1 REVERT JUMPDEST DUP1 PUSH4 0x8C394951 EQ PUSH2 0x223 JUMPI DUP1 PUSH4 0x8DA5CB5B EQ PUSH2 0x236 JUMPI DUP1 PUSH4 0x9E44686F EQ PUSH2 0x247 JUMPI DUP1 PUSH4 0xC393FD32 EQ PUSH2 0x25A JUMPI PUSH1 0x0 DUP1 REVERT JUMPDEST DUP1 PUSH4 0x46904840 GT PUSH2 0xDE JUMPI DUP1 PUSH4 0x46904840 EQ PUSH2 0x19E JUMPI DUP1 PUSH4 0x715018A6 EQ PUSH2 0x1C9 JUMPI DUP1 PUSH4 0x72F702F3 EQ PUSH2 0x1D1 JUMPI DUP1 PUSH4 0x8988BCC2 EQ PUSH2 0x1F8 JUMPI PUSH1 0x0 DUP1 REVERT JUMPDEST DUP1 PUSH4 0xDD8ACF1 EQ PUSH2 0x110 JUMPI DUP1 PUSH4 0xE8AC288 EQ PUSH2 0x125 JUMPI DUP1 PUSH4 0x22DCD13E EQ PUSH2 0x163 JUMPI DUP1 PUSH4 0x3BC1F7B3 EQ PUSH2 0x18B JUMPI JUMPDEST PUSH1 0x0 DUP1 REVERT JUMPDEST PUSH2 0x123 PUSH2 0x11E CALLDATASIZE PUSH1 0x4 PUSH2 0x139F JUMP JUMPDEST PUSH2 0x30C JUMP JUMPDEST STOP JUMPDEST PUSH2 0x150 PUSH2 0x133 CALLDATASIZE PUSH1 0x4 PUSH2 0x13F2 JUMP JUMPDEST PUSH1 0x3 PUSH1 0x20 SWAP1 DUP2 MSTORE PUSH1 0x0 SWAP3 DUP4 MSTORE PUSH1 0x40 DUP1 DUP5 KECCAK256 SWAP1 SWAP2 MSTORE SWAP1 DUP3 MSTORE SWAP1 KECCAK256 SLOAD DUP2 JUMP JUMPDEST PUSH1 0x40 MLOAD SWAP1 DUP2 MSTORE PUSH1 0x20 ADD JUMPDEST PUSH1 0x40 MLOAD DUP1 SWAP2 SUB SWAP1 RETURN JUMPDEST PUSH1 0x1 SLOAD PUSH2 0x178 SWAP1 PUSH1 0x1 PUSH1 0xA0 SHL SWAP1 DIV PUSH2 0xFFFF AND DUP2 JUMP JUMPDEST PUSH1 0x40 MLOAD PUSH2 0xFFFF SWAP1 SWAP2 AND DUP2 MSTORE PUSH1 0x20 ADD PUSH2 0x15A JUMP JUMPDEST PUSH2 0x123 PUSH2 0x199 CALLDATASIZE PUSH1 0x4 PUSH2 0x141E JUMP JUMPDEST PUSH2 0x4EB JUMP JUMPDEST PUSH1 0x1 SLOAD PUSH2 0x1B1 SWAP1 PUSH1 0x1 PUSH1 0x1 PUSH1 0xA0 SHL SUB AND DUP2 JUMP JUMPDEST PUSH1 0x40 MLOAD PUSH1 0x1 PUSH1 0x1 PUSH1 0xA0 SHL SUB SWAP1 SWAP2 AND DUP2 MSTORE PUSH1 0x20 ADD PUSH2 0x15A JUMP JUMPDEST PUSH2 0x123 PUSH2 0x551 JUMP JUMPDEST PUSH2 0x1B1 PUSH32 0x0 DUP2 JUMP JUMPDEST PUSH2 0x150 PUSH2 0x206 CALLDATASIZE PUSH1 0x4 PUSH2 0x13F2 JUMP JUMPDEST PUSH1 0x4 PUSH1 0x20 SWAP1 DUP2 MSTORE PUSH1 0x0 SWAP3 DUP4 MSTORE PUSH1 0x40 DUP1 DUP5 KECCAK256 SWAP1 SWAP2 MSTORE SWAP1 DUP3 MSTORE SWAP1 KECCAK256 SLOAD DUP2 JUMP JUMPDEST PUSH2 0x123 PUSH2 0x231 CALLDATASIZE PUSH1 0x4 PUSH2 0x1491 JUMP JUMPDEST PUSH2 0x565 JUMP JUMPDEST PUSH1 0x0 SLOAD PUSH1 0x1 PUSH1 0x1 PUSH1 0xA0 SHL SUB AND PUSH2 0x1B1 JUMP JUMPDEST PUSH2 0x123 PUSH2 0x255 CALLDATASIZE PUSH1 0x4 PUSH2 0x1519 JUMP JUMPDEST PUSH2 0x7A5 JUMP JUMPDEST PUSH2 0x123 PUSH2 0x268 CALLDATASIZE PUSH1 0x4 PUSH2 0x154E JUMP JUMPDEST PUSH2 0xACB JUMP JUMPDEST PUSH2 0x29B PUSH2 0x27B CALLDATASIZE PUSH1 0x4 PUSH2 0x13F2 JUMP JUMPDEST PUSH1 0x5 PUSH1 0x20 SWAP1 DUP2 MSTORE PUSH1 0x0 SWAP3 DUP4 MSTORE PUSH1 0x40 DUP1 DUP5 KECCAK256 SWAP1 SWAP2 MSTORE SWAP1 DUP3 MSTORE SWAP1 KECCAK256 SLOAD PUSH1 0xFF AND DUP2 JUMP JUMPDEST PUSH1 0x40 MLOAD SWAP1 ISZERO ISZERO DUP2 MSTORE PUSH1 0x20 ADD PUSH2 0x15A JUMP JUMPDEST PUSH2 0x123 PUSH2 0x2B9 CALLDATASIZE PUSH1 0x4 PUSH2 0x1567 JUMP JUMPDEST PUSH2 0xD7B JUMP JUMPDEST PUSH2 0x123 PUSH2 0x2CC CALLDATASIZE PUSH1 0x4 PUSH2 0x1567 JUMP JUMPDEST PUSH2 0xDE4 JUMP JUMPDEST PUSH2 0x123 PUSH2 0x2DF CALLDATASIZE PUSH1 0x4 PUSH2 0x154E JUMP JUMPDEST PUSH2 0xE22 JUMP JUMPDEST PUSH2 0x2F7 PUSH2 0x2F2 CALLDATASIZE PUSH1 0x4 PUSH2 0x154E JUMP JUMPDEST PUSH2 0x1187 JUMP JUMPDEST PUSH1 0x40 MLOAD PUSH2 0x15A SWAP10 SWAP9 SWAP8 SWAP7 SWAP6 SWAP5 SWAP4 SWAP3 SWAP2 SWAP1 PUSH2 0x1600 JUMP JUMPDEST PUSH2 0x314 PUSH2 0x12F7 JUMP JUMPDEST PUSH1 0x1 DUP3 PUSH1 0x3 DUP2 GT ISZERO PUSH2 0x328 JUMPI PUSH2 0x328 PUSH2 0x15C8 JUMP JUMPDEST EQ DUP1 PUSH2 0x345 JUMPI POP PUSH1 0x2 DUP3 PUSH1 0x3 DUP2 GT ISZERO PUSH2 0x343 JUMPI PUSH2 0x343 PUSH2 0x15C8 JUMP JUMPDEST EQ JUMPDEST DUP1 PUSH2 0x361 JUMPI POP PUSH1 0x3 DUP3 PUSH1 0x3 DUP2 GT ISZERO PUSH2 0x35F JUMPI PUSH2 0x35F PUSH2 0x15C8 JUMP JUMPDEST EQ JUMPDEST PUSH2 0x39F JUMPI PUSH1 0x40 MLOAD PUSH3 0x461BCD PUSH1 0xE5 SHL DUP2 MSTORE PUSH1 0x20 PUSH1 0x4 DUP3 ADD MSTORE PUSH1 0xA PUSH1 0x24 DUP3 ADD MSTORE PUSH10 0x189859081C995CDD5B1D PUSH1 0xB2 SHL PUSH1 0x44 DUP3 ADD MSTORE PUSH1 0x64 ADD JUMPDEST PUSH1 0x40 MLOAD DUP1 SWAP2 SUB SWAP1 REVERT JUMPDEST PUSH1 0x0 DUP4 DUP2 MSTORE PUSH1 0x2 PUSH1 0x20 DUP2 SWAP1 MSTORE PUSH1 0x40 DUP3 KECCAK256 SWAP1 DUP2 ADD SLOAD SWAP1 SWAP2 PUSH1 0x1 PUSH1 0x1 PUSH1 0x40 SHL SUB SWAP1 SWAP2 AND SWAP1 SUB PUSH2 0x3F9 JUMPI PUSH1 0x40 MLOAD PUSH3 0x461BCD PUSH1 0xE5 SHL DUP2 MSTORE PUSH1 0x20 PUSH1 0x4 DUP3 ADD MSTORE PUSH1 0x8 PUSH1 0x24 DUP3 ADD MSTORE PUSH8 0xDCDE40DAC2E8C6D PUSH1 0xC3 SHL PUSH1 0x44 DUP3 ADD MSTORE PUSH1 0x64 ADD PUSH2 0x396 JUMP JUMPDEST PUSH1 0x2 DUP2 ADD SLOAD PUSH1 0x1 PUSH1 0x80 SHL SWAP1 DIV PUSH1 0xFF AND ISZERO PUSH2 0x440 JUMPI PUSH1 0x40 MLOAD PUSH3 0x461BCD PUSH1 0xE5 SHL DUP2 MSTORE PUSH1 0x20 PUSH1 0x4 DUP3 ADD MSTORE PUSH1 0x8 PUSH1 0x24 DUP3 ADD MSTORE PUSH8 0x1C995CDBDB1D9959 PUSH1 0xC2 SHL PUSH1 0x44 DUP3 ADD MSTORE PUSH1 0x64 ADD PUSH2 0x396 JUMP JUMPDEST PUSH1 0x2 DUP2 ADD DUP1 SLOAD PUSH1 0x1 PUSH1 0x80 SHL PUSH1 0xFF PUSH1 0x80 SHL NOT DUP3 AND DUP2 OR DUP4 SSTORE DUP6 SWAP3 SWAP2 PUSH2 0xFFFF PUSH1 0x80 SHL NOT AND OR PUSH1 0x1 PUSH1 0x88 SHL DUP4 PUSH1 0x3 DUP2 GT ISZERO PUSH2 0x47A JUMPI PUSH2 0x47A PUSH2 0x15C8 JUMP JUMPDEST MUL OR SWAP1 SSTORE POP PUSH1 0x2 DUP2 ADD DUP1 SLOAD PUSH16 0xFFFFFFFFFFFFFFFF0000000000000000 NOT AND PUSH1 0x1 PUSH1 0x40 SHL PUSH1 0x1 PUSH1 0x1 PUSH1 0x40 SHL SUB DUP6 AND MUL OR SWAP1 SSTORE PUSH1 0x40 MLOAD DUP5 SWAP1 PUSH32 0xEA8EA0D25C20E9A805057BC82C595929A741D114709F74E467893892D14BA66D SWAP1 PUSH2 0x4DD SWAP1 DUP7 SWAP1 PUSH2 0x1679 JUMP JUMPDEST PUSH1 0x40 MLOAD DUP1 SWAP2 SUB SWAP1 LOG2 POP POP POP POP JUMP JUMPDEST PUSH2 0x4F3 PUSH2 0x12F7 JUMP JUMPDEST PUSH2 0x2710 DUP2 PUSH2 0xFFFF AND GT ISZERO PUSH2 0x52F JUMPI PUSH1 0x40 MLOAD PUSH3 0x461BCD PUSH1 0xE5 SHL DUP2 MSTORE PUSH1 0x20 PUSH1 0x4 DUP3 ADD MSTORE PUSH1 0x3 PUSH1 0x24 DUP3 ADD MSTORE PUSH3 0x627073 PUSH1 0xE8 SHL PUSH1 0x44 DUP3 ADD MSTORE PUSH1 0x64 ADD PUSH2 0x396 JUMP JUMPDEST PUSH1 0x1 DUP1 SLOAD PUSH2 0xFFFF SWAP1 SWAP3 AND PUSH1 0x1 PUSH1 0xA0 SHL MUL PUSH2 0xFFFF PUSH1 0xA0 SHL NOT SWAP1 SWAP3 AND SWAP2 SWAP1 SWAP2 OR SWAP1 SSTORE JUMP JUMPDEST PUSH2 0x559 PUSH2 0x12F7 JUMP JUMPDEST PUSH2 0x563 PUSH1 0x0 PUSH2 0x1324 JUMP JUMPDEST JUMP JUMPDEST PUSH2 0x56D PUSH2 0x12F7 JUMP JUMPDEST PUSH1 0x0 DUP7 DUP2 MSTORE PUSH1 0x2 PUSH1 0x20 DUP2 SWAP1 MSTORE PUSH1 0x40 SWAP1 SWAP2 KECCAK256 ADD SLOAD PUSH1 0x1 PUSH1 0x1 PUSH1 0x40 SHL SUB AND ISZERO PUSH2 0x5BF JUMPI PUSH1 0x40 MLOAD PUSH3 0x461BCD PUSH1 0xE5 SHL DUP2 MSTORE PUSH1 0x20 PUSH1 0x4 DUP3 ADD MSTORE PUSH1 0x6 PUSH1 0x24 DUP3 ADD MSTORE PUSH6 0x657869737473 PUSH1 0xD0 SHL PUSH1 0x44 DUP3 ADD MSTORE PUSH1 0x64 ADD PUSH2 0x396 JUMP JUMPDEST PUSH1 0x40 MLOAD DUP1 PUSH2 0x120 ADD PUSH1 0x40 MSTORE DUP1 DUP7 DUP7 DUP1 DUP1 PUSH1 0x1F ADD PUSH1 0x20 DUP1 SWAP2 DIV MUL PUSH1 0x20 ADD PUSH1 0x40 MLOAD SWAP1 DUP2 ADD PUSH1 0x40 MSTORE DUP1 SWAP4 SWAP3 SWAP2 SWAP1 DUP2 DUP2 MSTORE PUSH1 0x20 ADD DUP4 DUP4 DUP1 DUP3 DUP5 CALLDATACOPY PUSH1 0x0 SWAP3 ADD SWAP2 SWAP1 SWAP2 MSTORE POP POP POP SWAP1 DUP3 MSTORE POP PUSH1 0x40 DUP1 MLOAD PUSH1 0x20 PUSH1 0x1F DUP8 ADD DUP2 SWAP1 DIV DUP2 MUL DUP3 ADD DUP2 ADD SWAP1 SWAP3 MSTORE DUP6 DUP2 MSTORE SWAP2 DUP2 ADD SWAP2 SWAP1 DUP7 SWAP1 DUP7 SWAP1 DUP2 SWAP1 DUP5 ADD DUP4 DUP3 DUP1 DUP3 DUP5 CALLDATACOPY PUSH1 0x0 SWAP3 ADD DUP3 SWAP1 MSTORE POP SWAP4 DUP6 MSTORE POP POP POP PUSH1 0x1 PUSH1 0x1 PUSH1 0x40 SHL SUB DUP5 AND PUSH1 0x20 DUP4 ADD MSTORE PUSH1 0x40 DUP3 ADD DUP2 SWAP1 MSTORE PUSH1 0x60 DUP3 ADD DUP2 SWAP1 MSTORE PUSH1 0x80 SWAP1 SWAP2 ADD SWAP1 DUP2 MSTORE PUSH1 0x0 PUSH1 0x20 DUP1 DUP4 ADD DUP3 SWAP1 MSTORE PUSH1 0x40 DUP1 DUP5 ADD DUP4 SWAP1 MSTORE PUSH1 0x60 SWAP1 SWAP4 ADD DUP3 SWAP1 MSTORE DUP10 DUP3 MSTORE PUSH1 0x2 SWAP1 MSTORE KECCAK256 DUP2 MLOAD DUP2 SWAP1 PUSH2 0x693 SWAP1 DUP3 PUSH2 0x172E JUMP JUMPDEST POP PUSH1 0x20 DUP3 ADD MLOAD PUSH1 0x1 DUP3 ADD SWAP1 PUSH2 0x6A8 SWAP1 DUP3 PUSH2 0x172E JUMP JUMPDEST POP PUSH1 0x40 DUP3 ADD MLOAD PUSH1 0x2 DUP3 ADD DUP1 SLOAD PUSH1 0x60 DUP6 ADD MLOAD PUSH1 0x80 DUP7 ADD MLOAD ISZERO ISZERO PUSH1 0x1 PUSH1 0x80 SHL MUL PUSH1 0xFF PUSH1 0x80 SHL NOT PUSH1 0x1 PUSH1 0x1 PUSH1 0x40 SHL SUB SWAP3 DUP4 AND PUSH1 0x1 PUSH1 0x40 SHL MUL PUSH16 0xFFFFFFFFFFFFFFFFFFFFFFFFFFFFFFFF NOT SWAP1 SWAP5 AND SWAP3 SWAP1 SWAP6 AND SWAP2 SWAP1 SWAP2 OR SWAP2 SWAP1 SWAP2 OR SWAP3 DUP4 AND DUP2 OR DUP3 SSTORE PUSH1 0xA0 DUP6 ADD MLOAD SWAP3 PUSH1 0xFF PUSH1 0x88 SHL NOT SWAP1 SWAP2 AND PUSH2 0xFFFF PUSH1 0x80 SHL NOT SWAP1 SWAP2 AND OR PUSH1 0x1 PUSH1 0x88 SHL DUP4 PUSH1 0x3 DUP2 GT ISZERO PUSH2 0x736 JUMPI PUSH2 0x736 PUSH2 0x15C8 JUMP JUMPDEST MUL OR SWAP1 SSTORE POP PUSH1 0xC0 DUP3 ADD MLOAD DUP2 PUSH1 0x3 ADD SSTORE PUSH1 0xE0 DUP3 ADD MLOAD DUP2 PUSH1 0x4 ADD SSTORE PUSH2 0x100 DUP3 ADD MLOAD DUP2 PUSH1 0x5 ADD SSTORE SWAP1 POP POP DUP6 PUSH32 0x5A5A8F5AE9B89A0ACF2C06C95D702FD5561642F6AB6E033608C990894D38FD4B DUP7 DUP7 DUP7 DUP7 DUP7 PUSH1 0x40 MLOAD PUSH2 0x795 SWAP6 SWAP5 SWAP4 SWAP3 SWAP2 SWAP1 PUSH2 0x1816 JUMP JUMPDEST PUSH1 0x40 MLOAD DUP1 SWAP2 SUB SWAP1 LOG2 POP POP POP POP POP POP JUMP JUMPDEST PUSH1 0x1 DUP3 PUSH1 0x3 DUP2 GT ISZERO PUSH2 0x7B9 JUMPI PUSH2 0x7B9 PUSH2 0x15C8 JUMP JUMPDEST EQ DUP1 PUSH2 0x7D6 JUMPI POP PUSH1 0x2 DUP3 PUSH1 0x3 DUP2 GT ISZERO PUSH2 0x7D4 JUMPI PUSH2 0x7D4 PUSH2 0x15C8 JUMP JUMPDEST EQ JUMPDEST PUSH2 0x810 JUMPI PUSH1 0x40 MLOAD PUSH3 0x461BCD PUSH1 0xE5 SHL DUP2 MSTORE PUSH1 0x20 PUSH1 0x4 DUP3 ADD MSTORE PUSH1 0xB PUSH1 0x24 DUP3 ADD MSTORE PUSH11 0x626164206F7574636F6D65 PUSH1 0xA8 SHL PUSH1 0x44 DUP3 ADD MSTORE PUSH1 0x64 ADD PUSH2 0x396 JUMP JUMPDEST PUSH1 0x0 DUP4 DUP2 MSTORE PUSH1 0x2 PUSH1 0x20 DUP2 SWAP1 MSTORE PUSH1 0x40 DUP3 KECCAK256 SWAP1 DUP2 ADD SLOAD SWAP1 SWAP2 PUSH1 0x1 PUSH1 0x1 PUSH1 0x40 SHL SUB SWAP1 SWAP2 AND SWAP1 SUB PUSH2 0x86A JUMPI PUSH1 0x40 MLOAD PUSH3 0x461BCD PUSH1 0xE5 SHL DUP2 MSTORE PUSH1 0x20 PUSH1 0x4 DUP3 ADD MSTORE PUSH1 0x8 PUSH1 0x24 DUP3 ADD MSTORE PUSH8 0xDCDE40DAC2E8C6D PUSH1 0xC3 SHL PUSH1 0x44 DUP3 ADD MSTORE PUSH1 0x64 ADD PUSH2 0x396 JUMP JUMPDEST PUSH1 0x2 DUP2 ADD SLOAD PUSH1 0x1 PUSH1 0x80 SHL SWAP1 DIV PUSH1 0xFF AND ISZERO PUSH2 0x8B1 JUMPI PUSH1 0x40 MLOAD PUSH3 0x461BCD PUSH1 0xE5 SHL DUP2 MSTORE PUSH1 0x20 PUSH1 0x4 DUP3 ADD MSTORE PUSH1 0x8 PUSH1 0x24 DUP3 ADD MSTORE PUSH8 0x1C995CDBDB1D9959 PUSH1 0xC2 SHL PUSH1 0x44 DUP3 ADD MSTORE PUSH1 0x64 ADD PUSH2 0x396 JUMP JUMPDEST PUSH1 0x0 DUP3 GT PUSH2 0x8EA JUMPI PUSH1 0x40 MLOAD PUSH3 0x461BCD PUSH1 0xE5 SHL DUP2 MSTORE PUSH1 0x20 PUSH1 0x4 DUP3 ADD MSTORE PUSH1 0x6 PUSH1 0x24 DUP3 ADD MSTORE PUSH6 0x185B5BDD5B9D PUSH1 0xD2 SHL PUSH1 0x44 DUP3 ADD MSTORE PUSH1 0x64 ADD PUSH2 0x396 JUMP JUMPDEST PUSH1 0x40 MLOAD PUSH4 0x23B872DD PUSH1 0xE0 SHL DUP2 MSTORE CALLER PUSH1 0x4 DUP3 ADD MSTORE ADDRESS PUSH1 0x24 DUP3 ADD MSTORE PUSH1 0x44 DUP2 ADD DUP4 SWAP1 MSTORE PUSH32 0x0 PUSH1 0x1 PUSH1 0x1 PUSH1 0xA0 SHL SUB AND SWAP1 PUSH4 0x23B872DD SWAP1 PUSH1 0x64 ADD PUSH1 0x20 PUSH1 0x40 MLOAD DUP1 DUP4 SUB DUP2 PUSH1 0x0 DUP8 GAS CALL ISZERO DUP1 ISZERO PUSH2 0x95D JUMPI RETURNDATASIZE PUSH1 0x0 DUP1 RETURNDATACOPY RETURNDATASIZE PUSH1 0x0 REVERT JUMPDEST POP POP POP POP PUSH1 0x40 MLOAD RETURNDATASIZE PUSH1 0x1F NOT PUSH1 0x1F DUP3 ADD AND DUP3 ADD DUP1 PUSH1 0x40 MSTORE POP DUP2 ADD SWAP1 PUSH2 0x981 SWAP2 SWAP1 PUSH2 0x1859 JUMP JUMPDEST PUSH2 0x9BC JUMPI PUSH1 0x40 MLOAD PUSH3 0x461BCD PUSH1 0xE5 SHL DUP2 MSTORE PUSH1 0x20 PUSH1 0x4 DUP3 ADD MSTORE PUSH1 0xC PUSH1 0x24 DUP3 ADD MSTORE PUSH12 0x7472616E7366657246726F6D PUSH1 0xA0 SHL PUSH1 0x44 DUP3 ADD MSTORE PUSH1 0x64 ADD PUSH2 0x396 JUMP JUMPDEST PUSH1 0x1 DUP4 PUSH1 0x3 DUP2 GT ISZERO PUSH2 0x9D0 JUMPI PUSH2 0x9D0 PUSH2 0x15C8 JUMP JUMPDEST SUB PUSH2 0xA24 JUMPI PUSH1 0x0 DUP5 DUP2 MSTORE PUSH1 0x3 PUSH1 0x20 SWAP1 DUP2 MSTORE PUSH1 0x40 DUP1 DUP4 KECCAK256 CALLER DUP5 MSTORE SWAP1 SWAP2 MSTORE DUP2 KECCAK256 DUP1 SLOAD DUP5 SWAP3 SWAP1 PUSH2 0x9FE SWAP1 DUP5 SWAP1 PUSH2 0x1891 JUMP JUMPDEST SWAP3 POP POP DUP2 SWAP1 SSTORE POP DUP2 DUP2 PUSH1 0x4 ADD PUSH1 0x0 DUP3 DUP3 SLOAD PUSH2 0xA19 SWAP2 SWAP1 PUSH2 0x1891 JUMP JUMPDEST SWAP1 SWAP2 SSTORE POP PUSH2 0xA6E SWAP1 POP JUMP JUMPDEST PUSH1 0x0 DUP5 DUP2 MSTORE PUSH1 0x4 PUSH1 0x20 SWAP1 DUP2 MSTORE PUSH1 0x40 DUP1 DUP4 KECCAK256 CALLER DUP5 MSTORE SWAP1 SWAP2 MSTORE DUP2 KECCAK256 DUP1 SLOAD DUP5 SWAP3 SWAP1 PUSH2 0xA4D SWAP1 DUP5 SWAP1 PUSH2 0x1891 JUMP JUMPDEST SWAP3 POP POP DUP2 SWAP1 SSTORE POP DUP2 DUP2 PUSH1 0x5 ADD PUSH1 0x0 DUP3 DUP3 SLOAD PUSH2 0xA68 SWAP2 SWAP1 PUSH2 0x1891 JUMP JUMPDEST SWAP1 SWAP2 SSTORE POP POP JUMPDEST DUP2 DUP2 PUSH1 0x3 ADD PUSH1 0x0 DUP3 DUP3 SLOAD PUSH2 0xA82 SWAP2 SWAP1 PUSH2 0x1891 JUMP JUMPDEST SWAP1 SWAP2 SSTORE POP POP PUSH1 0x40 MLOAD CALLER SWAP1 DUP6 SWAP1 PUSH32 0xE2777F8436017A241F6BE88DAADBA51BC0F4D204FEA0C1417A9B26624AE28E72 SWAP1 PUSH2 0xABD SWAP1 DUP8 SWAP1 DUP8 SWAP1 PUSH2 0x18A4 JUMP JUMPDEST PUSH1 0x40 MLOAD DUP1 SWAP2 SUB SWAP1 LOG3 POP POP POP POP JUMP JUMPDEST PUSH1 0x0 DUP2 DUP2 MSTORE PUSH1 0x2 PUSH1 0x20 DUP2 SWAP1 MSTORE PUSH1 0x40 SWAP1 SWAP2 KECCAK256 SWAP1 DUP2 ADD SLOAD PUSH1 0x1 PUSH1 0x80 SHL SWAP1 DIV PUSH1 0xFF AND PUSH2 0xB25 JUMPI PUSH1 0x40 MLOAD PUSH3 0x461BCD PUSH1 0xE5 SHL DUP2 MSTORE PUSH1 0x20 PUSH1 0x4 DUP3 ADD MSTORE PUSH1 0xC PUSH1 0x24 DUP3 ADD MSTORE PUSH12 0x1B9BDD081C995CDBDB1D9959 PUSH1 0xA2 SHL PUSH1 0x44 DUP3 ADD MSTORE PUSH1 0x64 ADD PUSH2 0x396 JUMP JUMPDEST PUSH1 0x1 PUSH1 0x2 DUP3 ADD SLOAD PUSH1 0x1 PUSH1 0x88 SHL SWAP1 DIV PUSH1 0xFF AND PUSH1 0x3 DUP2 GT ISZERO PUSH2 0xB47 JUMPI PUSH2 0xB47 PUSH2 0x15C8 JUMP JUMPDEST EQ DUP1 PUSH2 0xB71 JUMPI POP PUSH1 0x2 DUP1 DUP3 ADD SLOAD PUSH1 0x1 PUSH1 0x88 SHL SWAP1 DIV PUSH1 0xFF AND PUSH1 0x3 DUP2 GT ISZERO PUSH2 0xB6F JUMPI PUSH2 0xB6F PUSH2 0x15C8 JUMP JUMPDEST EQ JUMPDEST PUSH2 0xBB0 JUMPI PUSH1 0x40 MLOAD PUSH3 0x461BCD PUSH1 0xE5 SHL DUP2 MSTORE PUSH1 0x20 PUSH1 0x4 DUP3 ADD MSTORE PUSH1 0x10 PUSH1 0x24 DUP3 ADD MSTORE PUSH16 0x191C985DC81D5B9CDD5C1C1BDC9D1959 PUSH1 0x82 SHL PUSH1 0x44 DUP3 ADD MSTORE PUSH1 0x64 ADD PUSH2 0x396 JUMP JUMPDEST PUSH1 0x1 SLOAD PUSH1 0x3 DUP3 ADD SLOAD PUSH1 0x0 SWAP2 PUSH2 0x2710 SWAP2 PUSH2 0xBD4 SWAP2 PUSH1 0x1 PUSH1 0xA0 SHL SWAP1 DIV PUSH2 0xFFFF AND SWAP1 PUSH2 0x18BF JUMP JUMPDEST PUSH2 0xBDE SWAP2 SWAP1 PUSH2 0x18D6 JUMP JUMPDEST SWAP1 POP PUSH1 0x0 DUP2 DUP4 PUSH1 0x3 ADD SLOAD PUSH2 0xBF2 SWAP2 SWAP1 PUSH2 0x18F8 JUMP JUMPDEST SWAP1 POP DUP2 ISZERO PUSH2 0xCC9 JUMPI PUSH1 0x1 SLOAD PUSH1 0x40 MLOAD PUSH4 0xA9059CBB PUSH1 0xE0 SHL DUP2 MSTORE PUSH1 0x1 PUSH1 0x1 PUSH1 0xA0 SHL SUB SWAP2 DUP3 AND PUSH1 0x4 DUP3 ADD MSTORE PUSH1 0x24 DUP2 ADD DUP5 SWAP1 MSTORE PUSH32 0x0 SWAP1 SWAP2 AND SWAP1 PUSH4 0xA9059CBB SWAP1 PUSH1 0x44 ADD PUSH1 0x20 PUSH1 0x40 MLOAD DUP1 DUP4 SUB DUP2 PUSH1 0x0 DUP8 GAS CALL ISZERO DUP1 ISZERO PUSH2 0xC6E JUMPI RETURNDATASIZE PUSH1 0x0 DUP1 RETURNDATACOPY RETURNDATASIZE PUSH1 0x0 REVERT JUMPDEST POP POP POP POP PUSH1 0x40 MLOAD RETURNDATASIZE PUSH1 0x1F NOT PUSH1 0x1F DUP3 ADD AND DUP3 ADD DUP1 PUSH1 0x40 MSTORE POP DUP2 ADD SWAP1 PUSH2 0xC92 SWAP2 SWAP1 PUSH2 0x1859 JUMP JUMPDEST PUSH2 0xCC9 JUMPI PUSH1 0x40 MLOAD PUSH3 0x461BCD PUSH1 0xE5 SHL DUP2 MSTORE PUSH1 0x20 PUSH1 0x4 DUP3 ADD MSTORE PUSH1 0x8 PUSH1 0x24 DUP3 ADD MSTORE PUSH8 0x3332B2903C3332B9 PUSH1 0xC1 SHL PUSH1 0x44 DUP3 ADD MSTORE PUSH1 0x64 ADD PUSH2 0x396 JUMP JUMPDEST PUSH1 0x0 PUSH1 0x1 PUSH1 0x2 DUP6 ADD SLOAD PUSH1 0x1 PUSH1 0x88 SHL SWAP1 DIV PUSH1 0xFF AND PUSH1 0x3 DUP2 GT ISZERO PUSH2 0xCED JUMPI PUSH2 0xCED PUSH2 0x15C8 JUMP JUMPDEST EQ PUSH2 0xCFC JUMPI DUP4 PUSH1 0x5 ADD SLOAD PUSH2 0xD02 JUMP JUMPDEST DUP4 PUSH1 0x4 ADD SLOAD JUMPDEST SWAP1 POP PUSH1 0x0 DUP2 GT PUSH2 0xD41 JUMPI PUSH1 0x40 MLOAD PUSH3 0x461BCD PUSH1 0xE5 SHL DUP2 MSTORE PUSH1 0x20 PUSH1 0x4 DUP3 ADD MSTORE PUSH1 0xA PUSH1 0x24 DUP3 ADD MSTORE PUSH10 0x6E6F2077696E6E657273 PUSH1 0xB0 SHL PUSH1 0x44 DUP3 ADD MSTORE PUSH1 0x64 ADD PUSH2 0x396 JUMP JUMPDEST PUSH1 0x40 MLOAD PUSH3 0x461BCD PUSH1 0xE5 SHL DUP2 MSTORE PUSH1 0x20 PUSH1 0x4 DUP3 ADD MSTORE PUSH1 0xF PUSH1 0x24 DUP3 ADD MSTORE PUSH15 0x155CD94818DB185A5B54995DD85C99 PUSH1 0x8A SHL PUSH1 0x44 DUP3 ADD MSTORE PUSH1 0x64 ADD PUSH2 0x396 JUMP JUMPDEST PUSH2 0xD83 PUSH2 0x12F7 JUMP JUMPDEST PUSH1 0x1 PUSH1 0x1 PUSH1 0xA0 SHL SUB DUP2 AND PUSH2 0xDC2 JUMPI PUSH1 0x40 MLOAD PUSH3 0x461BCD PUSH1 0xE5 SHL DUP2 MSTORE PUSH1 0x4 ADD PUSH2 0x396 SWAP1 PUSH1 0x20 DUP1 DUP3 MSTORE PUSH1 0x4 SWAP1 DUP3 ADD MSTORE PUSH4 0x7A65726F PUSH1 0xE0 SHL PUSH1 0x40 DUP3 ADD MSTORE PUSH1 0x60 ADD SWAP1 JUMP JUMPDEST PUSH1 0x1 DUP1 SLOAD PUSH1 0x1 PUSH1 0x1 PUSH1 0xA0 SHL SUB NOT AND PUSH1 0x1 PUSH1 0x1 PUSH1 0xA0 SHL SUB SWAP3 SWAP1 SWAP3 AND SWAP2 SWAP1 SWAP2 OR SWAP1 SSTORE JUMP JUMPDEST PUSH2 0xDEC PUSH2 0x12F7 JUMP JUMPDEST PUSH1 0x1 PUSH1 0x1 PUSH1 0xA0 SHL SUB DUP2 AND PUSH2 0xE16 JUMPI PUSH1 0x40 MLOAD PUSH4 0x1E4FBDF7 PUSH1 0xE0 SHL DUP2 MSTORE PUSH1 0x0 PUSH1 0x4 DUP3 ADD MSTORE PUSH1 0x24 ADD PUSH2 0x396 JUMP JUMPDEST PUSH2 0xE1F DUP2 PUSH2 0x1324 JUMP JUMPDEST POP JUMP JUMPDEST PUSH1 0x0 DUP2 DUP2 MSTORE PUSH1 0x2 PUSH1 0x20 DUP2 SWAP1 MSTORE PUSH1 0x40 SWAP1 SWAP2 KECCAK256 SWAP1 DUP2 ADD SLOAD PUSH1 0x1 PUSH1 0x80 SHL SWAP1 DIV PUSH1 0xFF AND PUSH2 0xE7C JUMPI PUSH1 0x40 MLOAD PUSH3 0x461BCD PUSH1 0xE5 SHL DUP2 MSTORE PUSH1 0x20 PUSH1 0x4 DUP3 ADD MSTORE PUSH1 0xC PUSH1 0x24 DUP3 ADD MSTORE PUSH12 0x1B9BDD081C995CDBDB1D9959 PUSH1 0xA2 SHL PUSH1 0x44 DUP3 ADD MSTORE PUSH1 0x64 ADD PUSH2 0x396 JUMP JUMPDEST PUSH1 0x1 PUSH1 0x2 DUP3 ADD SLOAD PUSH1 0x1 PUSH1 0x88 SHL SWAP1 DIV PUSH1 0xFF AND PUSH1 0x3 DUP2 GT ISZERO PUSH2 0xE9E JUMPI PUSH2 0xE9E PUSH2 0x15C8 JUMP JUMPDEST EQ DUP1 PUSH2 0xEC8 JUMPI POP PUSH1 0x2 DUP1 DUP3 ADD SLOAD PUSH1 0x1 PUSH1 0x88 SHL SWAP1 DIV PUSH1 0xFF AND PUSH1 0x3 DUP2 GT ISZERO PUSH2 0xEC6 JUMPI PUSH2 0xEC6 PUSH2 0x15C8 JUMP JUMPDEST EQ JUMPDEST PUSH2 0xF07 JUMPI PUSH1 0x40 MLOAD PUSH3 0x461BCD PUSH1 0xE5 SHL DUP2 MSTORE PUSH1 0x20 PUSH1 0x4 DUP3 ADD MSTORE PUSH1 0x10 PUSH1 0x24 DUP3 ADD MSTORE PUSH16 0x191C985DC81D5B9CDD5C1C1BDC9D1959 PUSH1 0x82 SHL PUSH1 0x44 DUP3 ADD MSTORE PUSH1 0x64 ADD PUSH2 0x396 JUMP JUMPDEST PUSH1 0x0 DUP3 DUP2 MSTORE PUSH1 0x5 PUSH1 0x20 SWAP1 DUP2 MSTORE PUSH1 0x40 DUP1 DUP4 KECCAK256 CALLER DUP5 MSTORE SWAP1 SWAP2 MSTORE SWAP1 KECCAK256 SLOAD PUSH1 0xFF AND ISZERO PUSH2 0xF5B JUMPI PUSH1 0x40 MLOAD PUSH3 0x461BCD PUSH1 0xE5 SHL DUP2 MSTORE PUSH1 0x20 PUSH1 0x4 DUP3 ADD MSTORE PUSH1 0x7 PUSH1 0x24 DUP3 ADD MSTORE PUSH7 0x18DB185A5B5959 PUSH1 0xCA SHL PUSH1 0x44 DUP3 ADD MSTORE PUSH1 0x64 ADD PUSH2 0x396 JUMP JUMPDEST PUSH1 0x0 PUSH1 0x1 PUSH1 0x2 DUP4 ADD SLOAD PUSH1 0x1 PUSH1 0x88 SHL SWAP1 DIV PUSH1 0xFF AND PUSH1 0x3 DUP2 GT ISZERO PUSH2 0xF7F JUMPI PUSH2 0xF7F PUSH2 0x15C8 JUMP JUMPDEST EQ PUSH2 0xFA3 JUMPI PUSH1 0x0 DUP4 DUP2 MSTORE PUSH1 0x4 PUSH1 0x20 SWAP1 DUP2 MSTORE PUSH1 0x40 DUP1 DUP4 KECCAK256 CALLER DUP5 MSTORE SWAP1 SWAP2 MSTORE SWAP1 KECCAK256 SLOAD PUSH2 0xFBE JUMP JUMPDEST PUSH1 0x0 DUP4 DUP2 MSTORE PUSH1 0x3 PUSH1 0x20 SWAP1 DUP2 MSTORE PUSH1 0x40 DUP1 DUP4 KECCAK256 CALLER DUP5 MSTORE SWAP1 SWAP2 MSTORE SWAP1 KECCAK256 SLOAD JUMPDEST SWAP1 POP PUSH1 0x0 DUP2 GT PUSH2 0xFFB JUMPI PUSH1 0x40 MLOAD PUSH3 0x461BCD PUSH1 0xE5 SHL DUP2 MSTORE PUSH1 0x20 PUSH1 0x4 DUP3 ADD MSTORE PUSH1 0x8 PUSH1 0x24 DUP3 ADD MSTORE PUSH8 0x6E6F207374616B65 PUSH1 0xC0 SHL PUSH1 0x44 DUP3 ADD MSTORE PUSH1 0x64 ADD PUSH2 0x396 JUMP JUMPDEST PUSH1 0x0 DUP4 DUP2 MSTORE PUSH1 0x5 PUSH1 0x20 SWAP1 DUP2 MSTORE PUSH1 0x40 DUP1 DUP4 KECCAK256 CALLER DUP5 MSTORE SWAP1 SWAP2 MSTORE DUP2 KECCAK256 DUP1 SLOAD PUSH1 0x1 PUSH1 0xFF NOT SWAP1 SWAP2 AND DUP2 OR SWAP1 SWAP2 SSTORE SLOAD PUSH1 0x3 DUP5 ADD SLOAD PUSH2 0x2710 SWAP2 PUSH2 0x1043 SWAP2 PUSH1 0x1 PUSH1 0xA0 SHL SWAP1 SWAP2 DIV PUSH2 0xFFFF AND SWAP1 PUSH2 0x18BF JUMP JUMPDEST PUSH2 0x104D SWAP2 SWAP1 PUSH2 0x18D6 JUMP JUMPDEST SWAP1 POP PUSH1 0x0 DUP2 DUP5 PUSH1 0x3 ADD SLOAD PUSH2 0x1061 SWAP2 SWAP1 PUSH2 0x18F8 JUMP JUMPDEST SWAP1 POP PUSH1 0x0 PUSH1 0x1 PUSH1 0x2 DUP7 ADD SLOAD PUSH1 0x1 PUSH1 0x88 SHL SWAP1 DIV PUSH1 0xFF AND PUSH1 0x3 DUP2 GT ISZERO PUSH2 0x1087 JUMPI PUSH2 0x1087 PUSH2 0x15C8 JUMP JUMPDEST EQ PUSH2 0x1096 JUMPI DUP5 PUSH1 0x5 ADD SLOAD PUSH2 0x109C JUMP JUMPDEST DUP5 PUSH1 0x4 ADD SLOAD JUMPDEST SWAP1 POP PUSH1 0x0 DUP2 PUSH2 0x10AB DUP5 DUP8 PUSH2 0x18BF JUMP JUMPDEST PUSH2 0x10B5 SWAP2 SWAP1 PUSH2 0x18D6 JUMP JUMPDEST PUSH1 0x40 MLOAD PUSH4 0xA9059CBB PUSH1 0xE0 SHL DUP2 MSTORE CALLER PUSH1 0x4 DUP3 ADD MSTORE PUSH1 0x24 DUP2 ADD DUP3 SWAP1 MSTORE SWAP1 SWAP2 POP PUSH32 0x0 PUSH1 0x1 PUSH1 0x1 PUSH1 0xA0 SHL SUB AND SWAP1 PUSH4 0xA9059CBB SWAP1 PUSH1 0x44 ADD PUSH1 0x20 PUSH1 0x40 MLOAD DUP1 DUP4 SUB DUP2 PUSH1 0x0 DUP8 GAS CALL ISZERO DUP1 ISZERO PUSH2 0x1125 JUMPI RETURNDATASIZE PUSH1 0x0 DUP1 RETURNDATACOPY RETURNDATASIZE PUSH1 0x0 REVERT JUMPDEST POP POP POP POP PUSH1 0x40 MLOAD RETURNDATASIZE PUSH1 0x1F NOT PUSH1 0x1F DUP3 ADD AND DUP3 ADD DUP1 PUSH1 0x40 MSTORE POP DUP2 ADD SWAP1 PUSH2 0x1149 SWAP2 SWAP1 PUSH2 0x1859 JUMP JUMPDEST PUSH2 0x117E JUMPI PUSH1 0x40 MLOAD PUSH3 0x461BCD PUSH1 0xE5 SHL DUP2 MSTORE PUSH1 0x4 ADD PUSH2 0x396 SWAP1 PUSH1 0x20 DUP1 DUP3 MSTORE PUSH1 0x4 SWAP1 DUP3 ADD MSTORE PUSH4 0x3C3332B9 PUSH1 0xE1 SHL PUSH1 0x40 DUP3 ADD MSTORE PUSH1 0x60 ADD SWAP1 JUMP JUMPDEST POP POP POP POP POP POP POP JUMP JUMPDEST PUSH1 0x2 PUSH1 0x20 MSTORE PUSH1 0x0 SWAP1 DUP2 MSTORE PUSH1 0x40 SWAP1 KECCAK256 DUP1 SLOAD DUP2 SWAP1 PUSH2 0x11A2 SWAP1 PUSH2 0x16A3 JUMP JUMPDEST DUP1 PUSH1 0x1F ADD PUSH1 0x20 DUP1 SWAP2 DIV MUL PUSH1 0x20 ADD PUSH1 0x40 MLOAD SWAP1 DUP2 ADD PUSH1 0x40 MSTORE DUP1 SWAP3 SWAP2 SWAP1 DUP2 DUP2 MSTORE PUSH1 0x20 ADD DUP3 DUP1 SLOAD PUSH2 0x11CE SWAP1 PUSH2 0x16A3 JUMP JUMPDEST DUP1 ISZERO PUSH2 0x121B JUMPI DUP1 PUSH1 0x1F LT PUSH2 0x11F0 JUMPI PUSH2 0x100 DUP1 DUP4 SLOAD DIV MUL DUP4 MSTORE SWAP2 PUSH1 0x20 ADD SWAP2 PUSH2 0x121B JUMP JUMPDEST DUP3 ADD SWAP2 SWAP1 PUSH1 0x0 MSTORE PUSH1 0x20 PUSH1 0x0 KECCAK256 SWAP1 JUMPDEST DUP2 SLOAD DUP2 MSTORE SWAP1 PUSH1 0x1 ADD SWAP1 PUSH1 0x20 ADD DUP1 DUP4 GT PUSH2 0x11FE JUMPI DUP3 SWAP1 SUB PUSH1 0x1F AND DUP3 ADD SWAP2 JUMPDEST POP POP POP POP POP SWAP1 DUP1 PUSH1 0x1 ADD DUP1 SLOAD PUSH2 0x1230 SWAP1 PUSH2 0x16A3 JUMP JUMPDEST DUP1 PUSH1 0x1F ADD PUSH1 0x20 DUP1 SWAP2 DIV MUL PUSH1 0x20 ADD PUSH1 0x40 MLOAD SWAP1 DUP2 ADD PUSH1 0x40 MSTORE DUP1 SWAP3 SWAP2 SWAP1 DUP2 DUP2 MSTORE PUSH1 0x20 ADD DUP3 DUP1 SLOAD PUSH2 0x125C SWAP1 PUSH2 0x16A3 JUMP JUMPDEST DUP1 ISZERO PUSH2 0x12A9 JUMPI DUP1 PUSH1 0x1F LT PUSH2 0x127E JUMPI PUSH2 0x100 DUP1 DUP4 SLOAD DIV MUL DUP4 MSTORE SWAP2 PUSH1 0x20 ADD SWAP2 PUSH2 0x12A9 JUMP JUMPDEST DUP3 ADD SWAP2 SWAP1 PUSH1 0x0 MSTORE PUSH1 0x20 PUSH1 0x0 KECCAK256 SWAP1 JUMPDEST DUP2 SLOAD DUP2 MSTORE SWAP1 PUSH1 0x1 ADD SWAP1 PUSH1 0x20 ADD DUP1 DUP4 GT PUSH2 0x128C JUMPI DUP3 SWAP1 SUB PUSH1 0x1F AND DUP3 ADD SWAP2 JUMPDEST POP POP POP PUSH1 0x2 DUP5 ADD SLOAD PUSH1 0x3 DUP6 ADD SLOAD PUSH1 0x4 DUP7 ADD SLOAD PUSH1 0x5 SWAP1 SWAP7 ADD SLOAD SWAP5 SWAP6 PUSH1 0x1 PUSH1 0x1 PUSH1 0x40 SHL SUB DUP1 DUP5 AND SWAP7 PUSH1 0x1 PUSH1 0x40 SHL DUP6 DIV SWAP1 SWAP2 AND SWAP6 POP PUSH1 0xFF PUSH1 0x1 PUSH1 0x80 SHL DUP6 DIV DUP2 AND SWAP6 POP PUSH1 0x1 PUSH1 0x88 SHL SWAP1 SWAP5 DIV SWAP1 SWAP4 AND SWAP3 DUP10 JUMP JUMPDEST PUSH1 0x0 SLOAD PUSH1 0x1 PUSH1 0x1 PUSH1 0xA0 SHL SUB AND CALLER EQ PUSH2 0x563 JUMPI PUSH1 0x40 MLOAD PUSH4 0x118CDAA7 PUSH1 0xE0 SHL DUP2 MSTORE CALLER PUSH1 0x4 DUP3 ADD MSTORE PUSH1 0x24 ADD PUSH2 0x396 JUMP JUMPDEST PUSH1 0x0 DUP1 SLOAD PUSH1 0x1 PUSH1 0x1 PUSH1 0xA0 SHL SUB DUP4 DUP2 AND PUSH1 0x1 PUSH1 0x1 PUSH1 0xA0 SHL SUB NOT DUP4 AND DUP2 OR DUP5 SSTORE PUSH1 0x40 MLOAD SWAP2 SWAP1 SWAP3 AND SWAP3 DUP4 SWAP2 PUSH32 0x8BE0079C531659141344CD1FD0A4F28419497F9722A3DAAFE3B4186F6B6457E0 SWAP2 SWAP1 LOG3 POP POP JUMP JUMPDEST DUP1 CALLDATALOAD PUSH1 0x4 DUP2 LT PUSH2 0x1383 JUMPI PUSH1 0x0 DUP1 REVERT JUMPDEST SWAP2 SWAP1 POP JUMP JUMPDEST DUP1 CALLDATALOAD PUSH1 0x1 PUSH1 0x1 PUSH1 0x40 SHL SUB DUP2 AND DUP2 EQ PUSH2 0x1383 JUMPI PUSH1 0x0 DUP1 REVERT JUMPDEST PUSH1 0x0 DUP1 PUSH1 0x0 PUSH1 0x60 DUP5 DUP7 SUB SLT ISZERO PUSH2 0x13B4 JUMPI PUSH1 0x0 DUP1 REVERT JUMPDEST DUP4 CALLDATALOAD SWAP3 POP PUSH2 0x13C4 PUSH1 0x20 DUP6 ADD PUSH2 0x1374 JUMP JUMPDEST SWAP2 POP PUSH2 0x13D2 PUSH1 0x40 DUP6 ADD PUSH2 0x1388 JUMP JUMPDEST SWAP1 POP SWAP3 POP SWAP3 POP SWAP3 JUMP JUMPDEST DUP1 CALLDATALOAD PUSH1 0x1 PUSH1 0x1 PUSH1 0xA0 SHL SUB DUP2 AND DUP2 EQ PUSH2 0x1383 JUMPI PUSH1 0x0 DUP1 REVERT JUMPDEST PUSH1 0x0 DUP1 PUSH1 0x40 DUP4 DUP6 SUB SLT ISZERO PUSH2 0x1405 JUMPI PUSH1 0x0 DUP1 REVERT JUMPDEST DUP3 CALLDATALOAD SWAP2 POP PUSH2 0x1415 PUSH1 0x20 DUP5 ADD PUSH2 0x13DB JUMP JUMPDEST SWAP1 POP SWAP3 POP SWAP3 SWAP1 POP JUMP JUMPDEST PUSH1 0x0 PUSH1 0x20 DUP3 DUP5 SUB SLT ISZERO PUSH2 0x1430 JUMPI PUSH1 0x0 DUP1 REVERT JUMPDEST DUP2 CALLDATALOAD PUSH2 0xFFFF DUP2 AND DUP2 EQ PUSH2 0x1442 JUMPI PUSH1 0x0 DUP1 REVERT JUMPDEST SWAP4 SWAP3 POP POP POP JUMP JUMPDEST PUSH1 0x0 DUP1 DUP4 PUSH1 0x1F DUP5 ADD SLT PUSH2 0x145B JUMPI PUSH1 0x0 DUP1 REVERT JUMPDEST POP DUP2 CALLDATALOAD PUSH1 0x1 PUSH1 0x1 PUSH1 0x40 SHL SUB DUP2 GT ISZERO PUSH2 0x1472 JUMPI PUSH1 0x0 DUP1 REVERT JUMPDEST PUSH1 0x20 DUP4 ADD SWAP2 POP DUP4 PUSH1 0x20 DUP3 DUP6 ADD ADD GT ISZERO PUSH2 0x148A JUMPI PUSH1 0x0 DUP1 REVERT JUMPDEST SWAP3 POP SWAP3 SWAP1 POP JUMP JUMPDEST PUSH1 0x0 DUP1 PUSH1 0x0 DUP1 PUSH1 0x0 DUP1 PUSH1 0x80 DUP8 DUP10 SUB SLT ISZERO PUSH2 0x14AA JUMPI PUSH1 0x0 DUP1 REVERT JUMPDEST DUP7 CALLDATALOAD SWAP6 POP PUSH1 0x20 DUP8 ADD CALLDATALOAD PUSH1 0x1 PUSH1 0x1 PUSH1 0x40 SHL SUB DUP1 DUP3 GT ISZERO PUSH2 0x14C8 JUMPI PUSH1 0x0 DUP1 REVERT JUMPDEST PUSH2 0x14D4 DUP11 DUP4 DUP12 ADD PUSH2 0x1449 JUMP JUMPDEST SWAP1 SWAP8 POP SWAP6 POP PUSH1 0x40 DUP10 ADD CALLDATALOAD SWAP2 POP DUP1 DUP3 GT ISZERO PUSH2 0x14ED JUMPI PUSH1 0x0 DUP1 REVERT JUMPDEST POP PUSH2 0x14FA DUP10 DUP3 DUP11 ADD PUSH2 0x1449 JUMP JUMPDEST SWAP1 SWAP5 POP SWAP3 POP PUSH2 0x150D SWAP1 POP PUSH1 0x60 DUP9 ADD PUSH2 0x1388 JUMP JUMPDEST SWAP1 POP SWAP3 SWAP6 POP SWAP3 SWAP6 POP SWAP3 SWAP6 JUMP JUMPDEST PUSH1 0x0 DUP1 PUSH1 0x0 PUSH1 0x60 DUP5 DUP7 SUB SLT ISZERO PUSH2 0x152E JUMPI PUSH1 0x0 DUP1 REVERT JUMPDEST DUP4 CALLDATALOAD SWAP3 POP PUSH2 0x153E PUSH1 0x20 DUP6 ADD PUSH2 0x1374 JUMP JUMPDEST SWAP2 POP PUSH1 0x40 DUP5 ADD CALLDATALOAD SWAP1 POP SWAP3 POP SWAP3 POP SWAP3 JUMP JUMPDEST PUSH1 0x0 PUSH1 0x20 DUP3 DUP5 SUB SLT ISZERO PUSH2 0x1560 JUMPI PUSH1 0x0 DUP1 REVERT JUMPDEST POP CALLDATALOAD SWAP2 SWAP1 POP JUMP JUMPDEST PUSH1 0x0 PUSH1 0x20 DUP3 DUP5 SUB SLT ISZERO PUSH2 0x1579 JUMPI PUSH1 0x0 DUP1 REVERT JUMPDEST PUSH2 0x1442 DUP3 PUSH2 0x13DB JUMP JUMPDEST PUSH1 0x0 DUP2 MLOAD DUP1 DUP5 MSTORE PUSH1 0x0 JUMPDEST DUP2 DUP2 LT ISZERO PUSH2 0x15A8 JUMPI PUSH1 0x20 DUP2 DUP6 ADD DUP2 ADD MLOAD DUP7 DUP4 ADD DUP3 ADD MSTORE ADD PUSH2 0x158C JUMP JUMPDEST POP PUSH1 0x0 PUSH1 0x20 DUP3 DUP7 ADD ADD MSTORE PUSH1 0x20 PUSH1 0x1F NOT PUSH1 0x1F DUP4 ADD AND DUP6 ADD ADD SWAP2 POP POP SWAP3 SWAP2 POP POP JUMP JUMPDEST PUSH4 0x4E487B71 PUSH1 0xE0 SHL PUSH1 0x0 MSTORE PUSH1 0x21 PUSH1 0x4 MSTORE PUSH1 0x24 PUSH1 0x0 REVERT JUMPDEST PUSH1 0x4 DUP2 LT PUSH2 0x15FC JUMPI PUSH4 0x4E487B71 PUSH1 0xE0 SHL PUSH1 0x0 MSTORE PUSH1 0x21 PUSH1 0x4 MSTORE PUSH1 0x24 PUSH1 0x0 REVERT JUMPDEST SWAP1 MSTORE JUMP JUMPDEST PUSH1 0x0 PUSH2 0x120 DUP1 DUP4 MSTORE PUSH2 0x1614 DUP2 DUP5 ADD DUP14 PUSH2 0x1582 JUMP JUMPDEST SWAP1 POP DUP3 DUP2 SUB PUSH1 0x20 DUP5 ADD MSTORE PUSH2 0x1628 DUP2 DUP13 PUSH2 0x1582 JUMP JUMPDEST PUSH1 0x1 PUSH1 0x1 PUSH1 0x40 SHL SUB DUP12 DUP2 AND PUSH1 0x40 DUP7 ADD MSTORE DUP11 AND PUSH1 0x60 DUP6 ADD MSTORE DUP9 ISZERO ISZERO PUSH1 0x80 DUP6 ADD MSTORE SWAP2 POP PUSH2 0x1658 SWAP1 POP PUSH1 0xA0 DUP4 ADD DUP8 PUSH2 0x15DE JUMP JUMPDEST DUP5 PUSH1 0xC0 DUP4 ADD MSTORE DUP4 PUSH1 0xE0 DUP4 ADD MSTORE DUP3 PUSH2 0x100 DUP4 ADD MSTORE SWAP11 SWAP10 POP POP POP POP POP POP POP POP POP POP JUMP JUMPDEST PUSH1 0x20 DUP2 ADD PUSH2 0x1687 DUP3 DUP5 PUSH2 0x15DE JUMP JUMPDEST SWAP3 SWAP2 POP POP JUMP JUMPDEST PUSH4 0x4E487B71 PUSH1 0xE0 SHL PUSH1 0x0 MSTORE PUSH1 0x41 PUSH1 0x4 MSTORE PUSH1 0x24 PUSH1 0x0 REVERT JUMPDEST PUSH1 0x1 DUP2 DUP2 SHR SWAP1 DUP3 AND DUP1 PUSH2 0x16B7 JUMPI PUSH1 0x7F DUP3 AND SWAP2 POP JUMPDEST PUSH1 0x20 DUP3 LT DUP2 SUB PUSH2 0x16D7 JUMPI PUSH4 0x4E487B71 PUSH1 0xE0 SHL PUSH1 0x0 MSTORE PUSH1 0x22 PUSH1 0x4 MSTORE PUSH1 0x24 PUSH1 0x0 REVERT JUMPDEST POP SWAP2 SWAP1 POP JUMP JUMPDEST PUSH1 0x1F DUP3 GT ISZERO PUSH2 0x1729 JUMPI PUSH1 0x0 DUP2 PUSH1 0x0 MSTORE PUSH1 0x20 PUSH1 0x0 KECCAK256 PUSH1 0x1F DUP6 ADD PUSH1 0x5 SHR DUP2 ADD PUSH1 0x20 DUP7 LT ISZERO PUSH2 0x1706 JUMPI POP DUP1 JUMPDEST PUSH1 0x1F DUP6 ADD PUSH1 0x5 SHR DUP3 ADD SWAP2 POP JUMPDEST DUP2 DUP2 LT ISZERO PUSH2 0x1725 JUMPI DUP3 DUP2 SSTORE PUSH1 0x1 ADD PUSH2 0x1712 JUMP JUMPDEST POP POP POP JUMPDEST POP POP POP JUMP JUMPDEST DUP2 MLOAD PUSH1 0x1 PUSH1 0x1 PUSH1 0x40 SHL SUB DUP2 GT ISZERO PUSH2 0x1747 JUMPI PUSH2 0x1747 PUSH2 0x168D JUMP JUMPDEST PUSH2 0x175B DUP2 PUSH2 0x1755 DUP5 SLOAD PUSH2 0x16A3 JUMP JUMPDEST DUP5 PUSH2 0x16DD JUMP JUMPDEST PUSH1 0x20 DUP1 PUSH1 0x1F DUP4 GT PUSH1 0x1 DUP2 EQ PUSH2 0x1790 JUMPI PUSH1 0x0 DUP5 ISZERO PUSH2 0x1778 JUMPI POP DUP6 DUP4 ADD MLOAD JUMPDEST PUSH1 0x0 NOT PUSH1 0x3 DUP7 SWAP1 SHL SHR NOT AND PUSH1 0x1 DUP6 SWAP1 SHL OR DUP6 SSTORE PUSH2 0x1725 JUMP JUMPDEST PUSH1 0x0 DUP6 DUP2 MSTORE PUSH1 0x20 DUP2 KECCAK256 PUSH1 0x1F NOT DUP7 AND SWAP2 JUMPDEST DUP3 DUP2 LT ISZERO PUSH2 0x17BF JUMPI DUP9 DUP7 ADD MLOAD DUP3 SSTORE SWAP5 DUP5 ADD SWAP5 PUSH1 0x1 SWAP1 SWAP2 ADD SWAP1 DUP5 ADD PUSH2 0x17A0 JUMP JUMPDEST POP DUP6 DUP3 LT ISZERO PUSH2 0x17DD JUMPI DUP8 DUP6 ADD MLOAD PUSH1 0x0 NOT PUSH1 0x3 DUP9 SWAP1 SHL PUSH1 0xF8 AND SHR NOT AND DUP2 SSTORE JUMPDEST POP POP POP POP POP PUSH1 0x1 SWAP1 DUP2 SHL ADD SWAP1 SSTORE POP JUMP JUMPDEST DUP2 DUP4 MSTORE DUP2 DUP2 PUSH1 0x20 DUP6 ADD CALLDATACOPY POP PUSH1 0x0 DUP3 DUP3 ADD PUSH1 0x20 SWAP1 DUP2 ADD SWAP2 SWAP1 SWAP2 MSTORE PUSH1 0x1F SWAP1 SWAP2 ADD PUSH1 0x1F NOT AND SWAP1 SWAP2 ADD ADD SWAP1 JUMP JUMPDEST PUSH1 0x60 DUP2 MSTORE PUSH1 0x0 PUSH2 0x182A PUSH1 0x60 DUP4 ADD DUP8 DUP10 PUSH2 0x17ED JUMP JUMPDEST DUP3 DUP2 SUB PUSH1 0x20 DUP5 ADD MSTORE PUSH2 0x183D DUP2 DUP7 DUP9 PUSH2 0x17ED JUMP JUMPDEST SWAP2 POP POP PUSH1 0x1 PUSH1 0x1 PUSH1 0x40 SHL SUB DUP4 AND PUSH1 0x40 DUP4 ADD MSTORE SWAP7 SWAP6 POP POP POP POP POP POP JUMP JUMPDEST PUSH1 0x0 PUSH1 0x20 DUP3 DUP5 SUB SLT ISZERO PUSH2 0x186B JUMPI PUSH1 0x0 DUP1 REVERT JUMPDEST DUP2 MLOAD DUP1 ISZERO ISZERO DUP2 EQ PUSH2 0x1442 JUMPI PUSH1 0x0 DUP1 REVERT JUMPDEST PUSH4 0x4E487B71 PUSH1 0xE0 SHL PUSH1 0x0 MSTORE PUSH1 0x11 PUSH1 0x4 MSTORE PUSH1 0x24 PUSH1 0x0 REVERT JUMPDEST DUP1 DUP3 ADD DUP1 DUP3 GT ISZERO PUSH2 0x1687 JUMPI PUSH2 0x1687 PUSH2 0x187B JUMP JUMPDEST PUSH1 0x40 DUP2 ADD PUSH2 0x18B2 DUP3 DUP6 PUSH2 0x15DE JUMP JUMPDEST DUP3 PUSH1 0x20 DUP4 ADD MSTORE SWAP4 SWAP3 POP POP POP JUMP JUMPDEST DUP1 DUP3 MUL DUP2 ISZERO DUP3 DUP3 DIV DUP5 EQ OR PUSH2 0x1687 JUMPI PUSH2 0x1687 PUSH2 0x187B JUMP JUMPDEST PUSH1 0x0 DUP3 PUSH2 0x18F3 JUMPI PUSH4 0x4E487B71 PUSH1 0xE0 SHL PUSH1 0x0 MSTORE PUSH1 0x12 PUSH1 0x4 MSTORE PUSH1 0x24 PUSH1 0x0 REVERT JUMPDEST POP DIV SWAP1 JUMP JUMPDEST DUP2 DUP2 SUB DUP2 DUP2 GT ISZERO PUSH2 0x1687 JUMPI PUSH2 0x1687 PUSH2 0x187B JUMP INVALID LOG2 PUSH5 0x6970667358 0x22 SLT KECCAK256 TIMESTAMP PUSH8 0x69A0E715E1FBCEEE 0x27 DUP13 SWAP3 0xB7 PC PUSH12 0x867632B62A3546E6996166E7 DUP11 SWAP16 0xF9 PUSH13 0x64736F6C634300081800330000 "},"methodIdentifiers":{"claimReward(bytes32)":"f5414023","claimed(bytes32,address)":"dfcae622","createMatch(bytes32,string,string,uint64)":"8c394951","distributeRewards(bytes32)":"c393fd32","feeRecipient()":"46904840","matchesById(bytes32)":"fd59ebce","owner()":"8da5cb5b","platformFeeBps()":"22dcd13e","renounceOwnership()":"715018a6","resolveMatch(bytes32,uint8,uint64)":"0dd8acf1","setFeeRecipient(address)":"e74b981b","setPlatformFeeBps(uint16)":"3bc1f7b3","stake(bytes32,uint8,uint256)":"9e44686f","stakeA(bytes32,address)":"0e8ac288","stakeB(bytes32,address)":"8988bcc2","stakingToken()":"72f702f3","transferOwnership(address)":"f2fde38b"}}}}}