{
  "_format": "hh-sol-artifact-1",
  "contractName": "VictoryVault",
  "sourceName": "contracts/VictoryVault.sol",
  "abi": [
    {
      "inputs": [
        {
          "internalType": "address",
          "name": "_feeRecipient",
          "type": "address"
        },
        {
          "internalType": "uint16",
          "name": "_platformFeeBps",
          "type": "uint16"
        }
      ],
      "stateMutability": "nonpayable",
      "type": "constructor"
    },
    {
      "inputs": [],
      "name": "EnforcedPause",
      "type": "error"
    },
    {
      "inputs": [],
      "name": "ExpectedPause",
      "type": "error"
    },
    {
      "inputs": [
        {
          "internalType": "address",
          "name": "owner",
          "type": "address"
        }
      ],
      "name": "OwnableInvalidOwner",
      "type": "error"
    },
    {
      "inputs": [
        {
          "internalType": "address",
          "name": "account",
          "type": "address"
        }
      ],
      "name": "OwnableUnauthorizedAccount",
      "type": "error"
    },
    {
      "inputs": [],
      "name": "ReentrancyGuardReentrantCall",
      "type": "error"
    },
    {
      "anonymous": false,
      "inputs": [
        {
          "indexed": true,
          "internalType": "address",
          "name": "oldRecipient",
          "type": "address"
        },
        {
          "indexed": true,
          "internalType": "address",
          "name": "newRecipient",
          "type": "address"
        }
      ],
      "name": "FeeRecipientUpdated",
      "type": "event"
    },
    {
      "anonymous": false,
      "inputs": [
        {
          "indexed": true,
          "internalType": "bytes32",
          "name": "id",
          "type": "bytes32"
        },
        {
          "indexed": false,
          "internalType": "string",
          "name": "teamA",
          "type": "string"
        },
        {
          "indexed": false,
          "internalType": "string",
          "name": "teamB",
          "type": "string"
        },
        {
          "indexed": false,
          "internalType": "uint64",
          "name": "startTime",
          "type": "uint64"
        }
      ],
      "name": "MatchCreated",
      "type": "event"
    },
    {
      "anonymous": false,
      "inputs": [
        {
          "indexed": true,
          "internalType": "bytes32",
          "name": "id",
          "type": "bytes32"
        }
      ],
      "name": "MatchCreatedExistsGuard",
      "type": "event"
    },
    {
      "anonymous": false,
      "inputs": [
        {
          "indexed": true,
          "internalType": "bytes32",
          "name": "id",
          "type": "bytes32"
        },
        {
          "indexed": false,
          "internalType": "enum VictoryVault.Outcome",
          "name": "result",
          "type": "uint8"
        },
        {
          "indexed": false,
          "internalType": "uint64",
          "name": "endTime",
          "type": "uint64"
        }
      ],
      "name": "MatchResolved",
      "type": "event"
    },
    {
      "anonymous": false,
      "inputs": [
        {
          "indexed": true,
          "internalType": "address",
          "name": "previousOwner",
          "type": "address"
        },
        {
          "indexed": true,
          "internalType": "address",
          "name": "newOwner",
          "type": "address"
        }
      ],
      "name": "OwnershipTransferred",
      "type": "event"
    },
    {
      "anonymous": false,
      "inputs": [
        {
          "indexed": false,
          "internalType": "address",
          "name": "account",
          "type": "address"
        }
      ],
      "name": "Paused",
      "type": "event"
    },
    {
      "anonymous": false,
      "inputs": [
        {
          "indexed": false,
          "internalType": "uint16",
          "name": "oldFeeBps",
          "type": "uint16"
        },
        {
          "indexed": false,
          "internalType": "uint16",
          "name": "newFeeBps",
          "type": "uint16"
        }
      ],
      "name": "PlatformFeeUpdated",
      "type": "event"
    },
    {
      "anonymous": false,
      "inputs": [
        {
          "indexed": true,
          "internalType": "address",
          "name": "recipient",
          "type": "address"
        },
        {
          "indexed": false,
          "internalType": "uint256",
          "name": "amount",
          "type": "uint256"
        }
      ],
      "name": "PlatformFeesWithdrawn",
      "type": "event"
    },
    {
      "anonymous": false,
      "inputs": [
        {
          "indexed": true,
          "internalType": "bytes32",
          "name": "id",
          "type": "bytes32"
        },
        {
          "indexed": true,
          "internalType": "address",
          "name": "user",
          "type": "address"
        },
        {
          "indexed": false,
          "internalType": "uint256",
          "name": "refundAmount",
          "type": "uint256"
        }
      ],
      "name": "RefundClaimed",
      "type": "event"
    },
    {
      "anonymous": false,
      "inputs": [
        {
          "indexed": true,
          "internalType": "bytes32",
          "name": "id",
          "type": "bytes32"
        },
        {
          "indexed": true,
          "internalType": "address",
          "name": "user",
          "type": "address"
        },
        {
          "indexed": false,
          "internalType": "uint256",
          "name": "reward",
          "type": "uint256"
        }
      ],
      "name": "RewardClaimed",
      "type": "event"
    },
    {
      "anonymous": false,
      "inputs": [
        {
          "indexed": true,
          "internalType": "bytes32",
          "name": "id",
          "type": "bytes32"
        },
        {
          "indexed": true,
          "internalType": "address",
          "name": "user",
          "type": "address"
        },
        {
          "indexed": false,
          "internalType": "enum VictoryVault.Outcome",
          "name": "outcome",
          "type": "uint8"
        },
        {
          "indexed": false,
          "internalType": "uint256",
          "name": "amount",
          "type": "uint256"
        }
      ],
      "name": "Staked",
      "type": "event"
    },
    {
      "anonymous": false,
      "inputs": [
        {
          "indexed": false,
          "internalType": "address",
          "name": "account",
          "type": "address"
        }
      ],
      "name": "Unpaused",
      "type": "event"
    },
    {
      "inputs": [],
      "name": "MAX_PLATFORM_FEE_BPS",
      "outputs": [
        {
          "internalType": "uint16",
          "name": "",
          "type": "uint16"
        }
      ],
      "stateMutability": "view",
      "type": "function"
    },
    {
      "inputs": [
        {
          "internalType": "bytes32",
          "name": "id",
          "type": "bytes32"
        }
      ],
      "name": "adminMarkDrawAndAllowRefunds",
      "outputs": [],
      "stateMutability": "nonpayable",
      "type": "function"
    },
    {
      "inputs": [
        {
          "internalType": "bytes32",
          "name": "id",
          "type": "bytes32"
        }
      ],
      "name": "claimRefund",
      "outputs": [],
      "stateMutability": "nonpayable",
      "type": "function"
    },
    {
      "inputs": [
        {
          "internalType": "bytes32",
          "name": "id",
          "type": "bytes32"
        }
      ],
      "name": "claimReward",
      "outputs": [],
      "stateMutability": "nonpayable",
      "type": "function"
    },
    {
      "inputs": [
        {
          "internalType": "bytes32",
          "name": "",
          "type": "bytes32"
        },
        {
          "internalType": "address",
          "name": "",
          "type": "address"
        }
      ],
      "name": "claimed",
      "outputs": [
        {
          "internalType": "bool",
          "name": "",
          "type": "bool"
        }
      ],
      "stateMutability": "view",
      "type": "function"
    },
    {
      "inputs": [
        {
          "internalType": "bytes32",
          "name": "id",
          "type": "bytes32"
        },
        {
          "internalType": "string",
          "name": "teamA_",
          "type": "string"
        },
        {
          "internalType": "string",
          "name": "teamB_",
          "type": "string"
        },
        {
          "internalType": "uint64",
          "name": "startTime",
          "type": "uint64"
        }
      ],
      "name": "createMatch",
      "outputs": [],
      "stateMutability": "nonpayable",
      "type": "function"
    },
    {
      "inputs": [
        {
          "internalType": "bytes32",
          "name": "",
          "type": "bytes32"
        }
      ],
      "name": "feePaid",
      "outputs": [
        {
          "internalType": "bool",
          "name": "",
          "type": "bool"
        }
      ],
      "stateMutability": "view",
      "type": "function"
    },
    {
      "inputs": [],
      "name": "feeRecipient",
      "outputs": [
        {
          "internalType": "address",
          "name": "",
          "type": "address"
        }
      ],
      "stateMutability": "view",
      "type": "function"
    },
    {
      "inputs": [
        {
          "internalType": "bytes32",
          "name": "",
          "type": "bytes32"
        }
      ],
      "name": "matchesById",
      "outputs": [
        {
          "internalType": "string",
          "name": "teamA",
          "type": "string"
        },
        {
          "internalType": "string",
          "name": "teamB",
          "type": "string"
        },
        {
          "internalType": "uint64",
          "name": "startTime",
          "type": "uint64"
        },
        {
          "internalType": "uint64",
          "name": "endTime",
          "type": "uint64"
        },
        {
          "internalType": "bool",
          "name": "resolved",
          "type": "bool"
        },
        {
          "internalType": "enum VictoryVault.Outcome",
          "name": "result",
          "type": "uint8"
        },
        {
          "internalType": "uint256",
          "name": "totalPool",
          "type": "uint256"
        },
        {
          "internalType": "uint256",
          "name": "poolA",
          "type": "uint256"
        },
        {
          "internalType": "uint256",
          "name": "poolB",
          "type": "uint256"
        },
        {
          "internalType": "bool",
          "name": "exists",
          "type": "bool"
        }
      ],
      "stateMutability": "view",
      "type": "function"
    },
    {
      "inputs": [],
      "name": "owner",
      "outputs": [
        {
          "internalType": "address",
          "name": "",
          "type": "address"
        }
      ],
      "stateMutability": "view",
      "type": "function"
    },
    {
      "inputs": [],
      "name": "pause",
      "outputs": [],
      "stateMutability": "nonpayable",
      "type": "function"
    },
    {
      "inputs": [],
      "name": "paused",
      "outputs": [
        {
          "internalType": "bool",
          "name": "",
          "type": "bool"
        }
      ],
      "stateMutability": "view",
      "type": "function"
    },
    {
      "inputs": [],
      "name": "platformAccrued",
      "outputs": [
        {
          "internalType": "uint256",
          "name": "",
          "type": "uint256"
        }
      ],
      "stateMutability": "view",
      "type": "function"
    },
    {
      "inputs": [],
      "name": "platformFeeBps",
      "outputs": [
        {
          "internalType": "uint16",
          "name": "",
          "type": "uint16"
        }
      ],
      "stateMutability": "view",
      "type": "function"
    },
    {
      "inputs": [
        {
          "internalType": "bytes32",
          "name": "",
          "type": "bytes32"
        },
        {
          "internalType": "address",
          "name": "",
          "type": "address"
        }
      ],
      "name": "refunded",
      "outputs": [
        {
          "internalType": "bool",
          "name": "",
          "type": "bool"
        }
      ],
      "stateMutability": "view",
      "type": "function"
    },
    {
      "inputs": [],
      "name": "renounceOwnership",
      "outputs": [],
      "stateMutability": "nonpayable",
      "type": "function"
    },
    {
      "inputs": [
        {
          "internalType": "address",
          "name": "to",
          "type": "address"
        },
        {
          "internalType": "uint256",
          "name": "amount",
          "type": "uint256"
        }
      ],
      "name": "rescueNative",
      "outputs": [],
      "stateMutability": "nonpayable",
      "type": "function"
    },
    {
      "inputs": [
        {
          "internalType": "bytes32",
          "name": "id",
          "type": "bytes32"
        },
        {
          "internalType": "enum VictoryVault.Outcome",
          "name": "result",
          "type": "uint8"
        },
        {
          "internalType": "uint64",
          "name": "endTime",
          "type": "uint64"
        }
      ],
      "name": "resolveMatch",
      "outputs": [],
      "stateMutability": "nonpayable",
      "type": "function"
    },
    {
      "inputs": [
        {
          "internalType": "address",
          "name": "_recipient",
          "type": "address"
        }
      ],
      "name": "setFeeRecipient",
      "outputs": [],
      "stateMutability": "nonpayable",
      "type": "function"
    },
    {
      "inputs": [
        {
          "internalType": "uint16",
          "name": "_bps",
          "type": "uint16"
        }
      ],
      "name": "setPlatformFeeBps",
      "outputs": [],
      "stateMutability": "nonpayable",
      "type": "function"
    },
    {
      "inputs": [
        {
          "internalType": "bytes32",
          "name": "id",
          "type": "bytes32"
        },
        {
          "internalType": "enum VictoryVault.Outcome",
          "name": "outcome",
          "type": "uint8"
        }
      ],
      "name": "stake",
      "outputs": [],
      "stateMutability": "payable",
      "type": "function"
    },
    {
      "inputs": [
        {
          "internalType": "bytes32",
          "name": "",
          "type": "bytes32"
        },
        {
          "internalType": "address",
          "name": "",
          "type": "address"
        }
      ],
      "name": "stakeA",
      "outputs": [
        {
          "internalType": "uint256",
          "name": "",
          "type": "uint256"
        }
      ],
      "stateMutability": "view",
      "type": "function"
    },
    {
      "inputs": [
        {
          "internalType": "bytes32",
          "name": "",
          "type": "bytes32"
        },
        {
          "internalType": "address",
          "name": "",
          "type": "address"
        }
      ],
      "name": "stakeB",
      "outputs": [
        {
          "internalType": "uint256",
          "name": "",
          "type": "uint256"
        }
      ],
      "stateMutability": "view",
      "type": "function"
    },
    {
      "inputs": [
        {
          "internalType": "address",
          "name": "newOwner",
          "type": "address"
        }
      ],
      "name": "transferOwnership",
      "outputs": [],
      "stateMutability": "nonpayable",
      "type": "function"
    },
    {
      "inputs": [],
      "name": "unpause",
      "outputs": [],
      "stateMutability": "nonpayable",
      "type": "function"
    },
    {
      "inputs": [
        {
          "internalType": "bytes32",
          "name": "id",
          "type": "bytes32"
        },
        {
          "internalType": "address",
          "name": "user",
          "type": "address"
        }
      ],
      "name": "userStakeOf",
      "outputs": [
        {
          "internalType": "uint256",
          "name": "a",
          "type": "uint256"
        },
        {
          "internalType": "uint256",
          "name": "b",
          "type": "uint256"
        }
      ],
      "stateMutability": "view",
      "type": "function"
    },
    {
      "inputs": [],
      "name": "withdrawPlatformFees",
      "outputs": [],
      "stateMutability": "nonpayable",
      "type": "function"
    }
  ],
  "bytecode": "0x60806040523480156200001157600080fd5b50604051620024f1380380620024f1833981016040819052620000349162000194565b33806200005c57604051631e4fbdf760e01b8152600060048201526024015b60405180910390fd5b620000678162000144565b50600180556001600160a01b038216620000b55760405162461bcd60e51b815260206004820152600e60248201526d0666565526563697069656e743d360941b604482015260640162000053565b6103e861ffff82161115620000fd5760405162461bcd60e51b815260206004820152600d60248201526c0cccaca40c4e0e6407c40dac2f609b1b604482015260640162000053565b6002805461ffff909216600160a81b0261ffff60a81b196001600160a01b039094166101000293909316610100600160b81b031990921691909117919091179055620001e4565b600080546001600160a01b038381166001600160a01b0319831681178455604051919092169283917f8be0079c531659141344cd1fd0a4f28419497f9722a3daafe3b4186f6b6457e09190a35050565b60008060408385031215620001a857600080fd5b82516001600160a01b0381168114620001c057600080fd5b602084015190925061ffff81168114620001d957600080fd5b809150509250929050565b6122fd80620001f46000396000f3fe60806040526004361061019c5760003560e01c80638988bcc2116100ec578063dfcae6221161008a578063f2fde38b11610064578063f2fde38b14610524578063f541402314610544578063fbfa3ecf14610564578063fd59ebce1461059f57600080fd5b8063dfcae622146104a9578063e74b981b146104e4578063e90a96351461050457600080fd5b80638da5cb5b116100c65780638da5cb5b14610430578063ae33758b1461044e578063b57f4d9c1461047e578063d0b7830b1461049457600080fd5b80638988bcc2146103c25780638c394951146103fa5780638d01513c1461041a57600080fd5b80634690484011610159578063680eb8db11610133578063680eb8db14610365578063715018a61461037857806371de2ffc1461038d5780638456cb59146103ad57600080fd5b806346904840146102985780635c975abb146102d5578063673d90a8146102f957600080fd5b80630dd8acf1146101a15780630e8ac288146101c35780631291f79d1461020e57806322dcd13e1461022e5780633bc1f7b3146102635780633f4ba83a14610283575b600080fd5b3480156101ad57600080fd5b506101c16101bc366004611d23565b6105d5565b005b3480156101cf57600080fd5b506101fb6101de366004611d76565b600460209081526000928352604080842090915290825290205481565b6040519081526020015b60405180910390f35b34801561021a57600080fd5b506101c1610229366004611da2565b610846565b34801561023a57600080fd5b5060025461025090600160a81b900461ffff1681565b60405161ffff9091168152602001610205565b34801561026f57600080fd5b506101c161027e366004611dcc565b610936565b34801561028f57600080fd5b506101c16109e5565b3480156102a457600080fd5b506002546102bd9061010090046001600160a01b031681565b6040516001600160a01b039091168152602001610205565b3480156102e157600080fd5b5060025460ff165b6040519015158152602001610205565b34801561030557600080fd5b50610350610314366004611d76565b60008281526004602090815260408083206001600160a01b03909416808452938252808320549483526005825280832093835292905220549091565b60408051928352602083019190915201610205565b6101c1610373366004611df7565b6109f7565b34801561038457600080fd5b506101c1610c83565b34801561039957600080fd5b506101c16103a8366004611e1a565b610c95565b3480156103b957600080fd5b506101c1610f3c565b3480156103ce57600080fd5b506101fb6103dd366004611d76565b600560209081526000928352604080842090915290825290205481565b34801561040657600080fd5b506101c1610415366004611e7b565b610f4c565b34801561042657600080fd5b506102506103e881565b34801561043c57600080fd5b506000546001600160a01b03166102bd565b34801561045a57600080fd5b506102e9610469366004611e1a565b60086020526000908152604090205460ff1681565b34801561048a57600080fd5b506101fb60095481565b3480156104a057600080fd5b506101c161120f565b3480156104b557600080fd5b506102e96104c4366004611d76565b600660209081526000928352604080842090915290825290205460ff1681565b3480156104f057600080fd5b506101c16104ff366004611f03565b611396565b34801561051057600080fd5b506101c161051f366004611e1a565b611437565b34801561053057600080fd5b506101c161053f366004611f03565b61154e565b34801561055057600080fd5b506101c161055f366004611e1a565b611589565b34801561057057600080fd5b506102e961057f366004611d76565b600760209081526000928352604080842090915290825290205460ff1681565b3480156105ab57600080fd5b506105bf6105ba366004611e1a565b611a06565b6040516102059a99989796959493929190611f9c565b6105dd611b7b565b6105e5611ba8565b60018260038111156105f9576105f9611f64565b14806106165750600282600381111561061457610614611f64565b145b806106325750600382600381111561063057610630611f64565b145b6106705760405162461bcd60e51b815260206004820152600a602482015269189859081c995cdd5b1d60b21b60448201526064015b60405180910390fd5b6000838152600360205260409020600681015460ff166106a25760405162461bcd60e51b81526004016106679061201f565b6002810154600160801b900460ff16156106e95760405162461bcd60e51b81526020600482015260086024820152671c995cdbdb1d995960c21b6044820152606401610667565b60028101546001600160401b0390811690831610156107405760405162461bcd60e51b8152602060048201526013602482015272656e6454696d65203c20737461727454696d6560681b6044820152606401610667565b816001600160401b03164210156107995760405162461bcd60e51b815260206004820152601d60248201527f63616e6e6f74207265736f6c7665206265666f726520656e6454696d650000006044820152606401610667565b600281018054600160801b60ff60801b1982168117835585929161ffff60801b191617600160881b8360038111156107d3576107d3611f64565b02179055506002810180546fffffffffffffffff00000000000000001916600160401b6001600160401b0385160217905560405184907ffe9c7f3521b3f50773cd8632b36281de35be3c51d5bf9bcd3d8fb4e099f0a857906108389086908690612041565b60405180910390a250505050565b61084e611b7b565b610856611bcc565b6001600160a01b0382166108955760405162461bcd60e51b8152600401610667906020808252600490820152637a65726f60e01b604082015260600190565b6000826001600160a01b03168260405160006040518083038185875af1925050503d80600081146108e2576040519150601f19603f3d011682016040523d82523d6000602084013e6108e7565b606091505b50509050806109285760405162461bcd60e51b815260206004820152600d60248201526c1c995cd8dd594819985a5b1959609a1b6044820152606401610667565b5061093260018055565b5050565b61093e611b7b565b6103e861ffff821611156109805760405162461bcd60e51b81526020600482015260096024820152680c4e0e6407c40dac2f60bb1b6044820152606401610667565b6002805461ffff838116600160a81b81810261ffff60a81b1985161790945560408051949093049091168084526020840191909152917f84e4fe32bf74c4011a7e1fde79c63acdffaf92a0112cde153e7b0abee665bc6b910160405180910390a15050565b6109ed611b7b565b6109f5611bf6565b565b6109ff611ba8565b610a07611bcc565b3480610a3e5760405162461bcd60e51b8152602060048201526006602482015265185b5bdd5b9d60d21b6044820152606401610667565b6001826003811115610a5257610a52611f64565b1480610a6f57506002826003811115610a6d57610a6d611f64565b145b610aa95760405162461bcd60e51b815260206004820152600b60248201526a626164206f7574636f6d6560a81b6044820152606401610667565b6000838152600360205260409020600681015460ff16610adb5760405162461bcd60e51b81526004016106679061201f565b6002810154600160801b900460ff1615610b225760405162461bcd60e51b81526020600482015260086024820152671c995cdbdb1d995960c21b6044820152606401610667565b60028101546001600160401b03164210610b6f5760405162461bcd60e51b815260206004820152600e60248201526d18995d1d1a5b99c818db1bdcd95960921b6044820152606401610667565b6001836003811115610b8357610b83611f64565b03610bd757600084815260046020908152604080832033845290915281208054849290610bb190849061207b565b9250508190555081816004016000828254610bcc919061207b565b90915550610c219050565b600084815260056020908152604080832033845290915281208054849290610c0090849061207b565b9250508190555081816005016000828254610c1b919061207b565b90915550505b81816003016000828254610c35919061207b565b9091555050604051339085907fe2777f8436017a241f6be88daadba51bc0f4d204fea0c1417a9b26624ae28e7290610c709087908790612094565b60405180910390a3505061093260018055565b610c8b611b7b565b6109f56000611c48565b610c9d611bcc565b610ca5611ba8565b6000818152600360205260409020600681015460ff16610cd75760405162461bcd60e51b81526004016106679061201f565b6002810154600160801b900460ff16610d215760405162461bcd60e51b815260206004820152600c60248201526b1b9bdd081c995cdbdb1d995960a21b6044820152606401610667565b60036002820154600160881b900460ff166003811115610d4357610d43611f64565b14610d7d5760405162461bcd60e51b815260206004820152600a6024820152696e6f742061206472617760b01b6044820152606401610667565b600082815260076020908152604080832033845290915290205460ff1615610dd25760405162461bcd60e51b81526020600482015260086024820152671c99599d5b99195960c21b6044820152606401610667565b60008281526005602090815260408083203380855290835281842054868552600484528285209185529252822054610e0a919061207b565b905060008111610e475760405162461bcd60e51b81526020600482015260086024820152676e6f207374616b6560c01b6044820152606401610667565b6000838152600760209081526040808320338085529252808320805460ff191660011790555183908381818185875af1925050503d8060008114610ea7576040519150601f19603f3d011682016040523d82523d6000602084013e610eac565b606091505b5050905080610ef65760405162461bcd60e51b81526020600482015260166024820152751c99599d5b99081d1c985b9cd9995c8819985a5b195960521b6044820152606401610667565b604051828152339085907fe950d47bcc1a745a8ef1d8b86486b400a99681910425d126eb1a006d61f341b29060200160405180910390a3505050610f3960018055565b50565b610f44611b7b565b6109f5611c98565b610f54611b7b565b610f5c611ba8565b60008681526003602052604090206006015460ff1615610fad5760405162461bcd60e51b815260206004820152600c60248201526b6d617463682065786973747360a01b6044820152606401610667565b42816001600160401b0316116110055760405162461bcd60e51b815260206004820152601860248201527f737461727454696d65206d7573742062652066757475726500000000000000006044820152606401610667565b60405180610140016040528086868080601f016020809104026020016040519081016040528093929190818152602001838380828437600092019190915250505090825250604080516020601f87018190048102820181019092528581529181019190869086908190840183828082843760009201829052509385525050506001600160401b0384166020830152604082018190526060820181905260809091019081526000602080830182905260408084018390526060840183905260016080909401939093528982526003905220815181906110e39082612150565b50602082015160018201906110f89082612150565b506040820151600282018054606085015160808601511515600160801b0260ff60801b196001600160401b03928316600160401b026fffffffffffffffffffffffffffffffff199094169290951691909117919091179283168117825560a08501519260ff60881b1990911661ffff60801b1990911617600160881b83600381111561118657611186611f64565b021790555060c0820151600382015560e082015160048201556101008201516005820155610120909101516006909101805460ff191691151591909117905560405186907f5a5a8f5ae9b89a0acf2c06c95d702fd5561642f6ab6e033608c990894d38fd4b906111ff9088908890889088908890612238565b60405180910390a2505050505050565b611217611bcc565b6000600954116112535760405162461bcd60e51b81526020600482015260076024820152666e6f206665657360c81b6044820152606401610667565b60098054600090915560025461010090046001600160a01b03166112ab5760405162461bcd60e51b815260206004820152600f60248201526e1b9bc8199959549958da5c1a595b9d608a1b6044820152606401610667565b60025460405160009161010090046001600160a01b03169083908381818185875af1925050503d80600081146112fd576040519150601f19603f3d011682016040523d82523d6000602084013e611302565b606091505b50509050806113455760405162461bcd60e51b815260206004820152600f60248201526e1dda5d1a191c985dc819985a5b1959608a1b6044820152606401610667565b6002546040518381526101009091046001600160a01b0316907ffc7ad544ff6a06d6499925723d25b6fe70457a42939995b1d3d6f560fe3363339060200160405180910390a250506109f560018055565b61139e611b7b565b6001600160a01b0381166113dd5760405162461bcd60e51b8152600401610667906020808252600490820152637a65726f60e01b604082015260600190565b600280546001600160a01b03838116610100818102610100600160a81b031985161790945560405193909204169182907faaebcf1bfa00580e41d966056b48521fa9f202645c86d4ddf28113e617c1b1d390600090a35050565b61143f611b7b565b611447611ba8565b6000818152600360205260409020600681015460ff166114795760405162461bcd60e51b81526004016106679061201f565b6002810154600160801b900460ff16156114c85760405162461bcd60e51b815260206004820152601060248201526f185b1c9958591e481c995cdbdb1d995960821b6044820152606401610667565b6002810180546001600160401b03428116600160401b90810271ffffffffffffffffffff0000000000000000199093169290921761030160801b179283905560405185937ffe9c7f3521b3f50773cd8632b36281de35be3c51d5bf9bcd3d8fb4e099f0a85793611542936003939190920490911690612041565b60405180910390a25050565b611556611b7b565b6001600160a01b03811661158057604051631e4fbdf760e01b815260006004820152602401610667565b610f3981611c48565b611591611bcc565b611599611ba8565b6000818152600360205260409020600681015460ff166115cb5760405162461bcd60e51b81526004016106679061201f565b6002810154600160801b900460ff166116155760405162461bcd60e51b815260206004820152600c60248201526b1b9bdd081c995cdbdb1d995960a21b6044820152606401610667565b60016002820154600160881b900460ff16600381111561163757611637611f64565b14806116615750600280820154600160881b900460ff16600381111561165f5761165f611f64565b145b61169c5760405162461bcd60e51b815260206004820152600c60248201526b64726177206f72206e6f6e6560a01b6044820152606401610667565b600082815260066020908152604080832033845290915290205460ff16156116f05760405162461bcd60e51b815260206004820152600760248201526618db185a5b595960ca1b6044820152606401610667565b600060016002830154600160881b900460ff16600381111561171457611714611f64565b14611738576000838152600560209081526040808320338452909152902054611753565b60008381526004602090815260408083203384529091529020545b9050600081116117905760405162461bcd60e51b81526020600482015260086024820152676e6f207374616b6560c01b6044820152606401610667565b60008381526006602090815260408083203384528252808320805460ff19166001179055858352600890915290205460ff1661182f576002546003830154600091612710916117ea91600160a81b900461ffff169061227b565b6117f49190612292565b6000858152600860205260409020805460ff191660011790559050801561182d578060096000828254611827919061207b565b90915550505b505b60025460038301546000916127109161185391600160a81b900461ffff169061227b565b61185d9190612292565b60038401549091508115801590611878575083600301548211155b156118945781846003015461188d91906122b4565b9050611898565b5060005b600060016002860154600160881b900460ff1660038111156118bc576118bc611f64565b146118cb5784600501546118d1565b84600401545b9050600081116119145760405162461bcd60e51b815260206004820152600e60248201526d1b9bc81dda5b9b995c881c1bdbdb60921b6044820152606401610667565b600081611921848761227b565b61192b9190612292565b604051909150600090339083908381818185875af1925050503d8060008114611970576040519150601f19603f3d011682016040523d82523d6000602084013e611975565b606091505b50509050806119bf5760405162461bcd60e51b81526020600482015260166024820152751c995dd85c99081d1c985b9cd9995c8819985a5b195960521b6044820152606401610667565b604051828152339089907ffe236dfc7ce073698734b89da1aee0e7551c9c6d264404c502e6e8fefc1132a89060200160405180910390a350505050505050610f3960018055565b600360205260009081526040902080548190611a21906120c5565b80601f0160208091040260200160405190810160405280929190818152602001828054611a4d906120c5565b8015611a9a5780601f10611a6f57610100808354040283529160200191611a9a565b820191906000526020600020905b815481529060010190602001808311611a7d57829003601f168201915b505050505090806001018054611aaf906120c5565b80601f0160208091040260200160405190810160405280929190818152602001828054611adb906120c5565b8015611b285780601f10611afd57610100808354040283529160200191611b28565b820191906000526020600020905b815481529060010190602001808311611b0b57829003601f168201915b505050600284015460038501546004860154600587015460069097015495966001600160401b0380851697600160401b8604909116965060ff600160801b860481169650600160881b909504851694168a565b6000546001600160a01b031633146109f55760405163118cdaa760e01b8152336004820152602401610667565b60025460ff16156109f55760405163d93c066560e01b815260040160405180910390fd5b600260015403611bef57604051633ee5aeb560e01b815260040160405180910390fd5b6002600155565b611bfe611cd5565b6002805460ff191690557f5db9ee0a495bf2e6ff9c91a7834c1ba4fdd244a5e8aa4e537bd38aeae4b073aa335b6040516001600160a01b03909116815260200160405180910390a1565b600080546001600160a01b038381166001600160a01b0319831681178455604051919092169283917f8be0079c531659141344cd1fd0a4f28419497f9722a3daafe3b4186f6b6457e09190a35050565b611ca0611ba8565b6002805460ff191660011790557f62e78cea01bee320cd4e420270b5ea74000d11b0c9f74754ebdbfc544b05a258611c2b3390565b60025460ff166109f557604051638dfc202b60e01b815260040160405180910390fd5b803560048110611d0757600080fd5b919050565b80356001600160401b0381168114611d0757600080fd5b600080600060608486031215611d3857600080fd5b83359250611d4860208501611cf8565b9150611d5660408501611d0c565b90509250925092565b80356001600160a01b0381168114611d0757600080fd5b60008060408385031215611d8957600080fd5b82359150611d9960208401611d5f565b90509250929050565b60008060408385031215611db557600080fd5b611dbe83611d5f565b946020939093013593505050565b600060208284031215611dde57600080fd5b813561ffff81168114611df057600080fd5b9392505050565b60008060408385031215611e0a57600080fd5b82359150611d9960208401611cf8565b600060208284031215611e2c57600080fd5b5035919050565b60008083601f840112611e4557600080fd5b5081356001600160401b03811115611e5c57600080fd5b602083019150836020828501011115611e7457600080fd5b9250929050565b60008060008060008060808789031215611e9457600080fd5b8635955060208701356001600160401b0380821115611eb257600080fd5b611ebe8a838b01611e33565b90975095506040890135915080821115611ed757600080fd5b50611ee489828a01611e33565b9094509250611ef7905060608801611d0c565b90509295509295509295565b600060208284031215611f1557600080fd5b611df082611d5f565b6000815180845260005b81811015611f4457602081850181015186830182015201611f28565b506000602082860101526020601f19601f83011685010191505092915050565b634e487b7160e01b600052602160045260246000fd5b60048110611f9857634e487b7160e01b600052602160045260246000fd5b9052565b6000610140808352611fb08184018e611f1e565b90508281036020840152611fc4818d611f1e565b6001600160401b038c811660408601528b16606085015289151560808501529150611ff4905060a0830188611f7a565b8560c08301528460e0830152836101008301528215156101208301529b9a5050505050505050505050565b6020808252600890820152670dcde40dac2e8c6d60c31b604082015260600190565b6040810161204f8285611f7a565b6001600160401b03831660208301529392505050565b634e487b7160e01b600052601160045260246000fd5b8082018082111561208e5761208e612065565b92915050565b604081016120a28285611f7a565b8260208301529392505050565b634e487b7160e01b600052604160045260246000fd5b600181811c908216806120d957607f821691505b6020821081036120f957634e487b7160e01b600052602260045260246000fd5b50919050565b601f82111561214b576000816000526020600020601f850160051c810160208610156121285750805b601f850160051c820191505b8181101561214757828155600101612134565b5050505b505050565b81516001600160401b03811115612169576121696120af565b61217d8161217784546120c5565b846120ff565b602080601f8311600181146121b2576000841561219a5750858301515b600019600386901b1c1916600185901b178555612147565b600085815260208120601f198616915b828110156121e1578886015182559484019460019091019084016121c2565b50858210156121ff5787850151600019600388901b60f8161c191681555b5050505050600190811b01905550565b81835281816020850137506000828201602090810191909152601f909101601f19169091010190565b60608152600061224c60608301878961220f565b828103602084015261225f81868861220f565b9150506001600160401b03831660408301529695505050505050565b808202811582820484141761208e5761208e612065565b6000826122af57634e487b7160e01b600052601260045260246000fd5b500490565b8181038181111561208e5761208e61206556fea2646970667358221220c051a2fd28164a4ad119883a73cca49ecf3fa0277cb50384ed1adec444717b8264736f6c63430008180033",
  "linkReferences": {},
  "deployedLinkReferences": {}
}